:020000040800F2
:1000000000280020CD1900082D170008351700081A
:100010003D170008451700084D17000800000000B4
:10002000000000000000000000000000551700085C
:1000300061170008000000006D170008791700081C
:10004000151A0008151A0008151A0008151A0008D4
:10005000151A0008151A0008151A0008151A0008C4
:10006000151A0008151A0008151A0008151A0008B4
:10007000151A0008151A0008151A0008151A0008A4
:10008000151A0008151A0008151A0008151A000894
:10009000151A0008151A0008151A0008151A000884
:1000A000151A0008151A0008151A0008151A000874
:1000B00085170008151A000800000000151A00082E
:1000C000151A00080000000000000000151A0008C2
:1000D00000000000151A0008151A000800000000B2
:1000E000151A0008151A0008151A0008000000006B
:1000F0000000000000000000000000000000000000
:0C01000000000000000000005FF808F1A3
:10010C0010B5054C237833B9044B13B10448AFF345
:10011C0000800123237010BD180000200000000097
:10012C004C30000808B5034B1BB103490348AFF32F
:10013C00008008BD000000001C0000204C300008AE
:10014C0080B483B000AF7860094A7B6852F82330E2
:10015C00012B06D1064A7B68002142F823100123AB
:10016C0000E0002318460C37BD4680BC704700BF2A
:10017C00D400002080B582B000AF7860064A7B685E
:10018C00012142F823101021044801F05AFF00BF4E
:10019C000837BD4680BD00BFD400002000080140D8
:1001AC0080B582B000AF364B1B68364A1360364BB5
:1001BC001B68334A13600221344801F013FF0346D5
:1001CC001A46314B1A602E4B5B682E4A53602E4BED
:1001DC005B682B4A536004212C4801F003FF034653
:1001EC001A46294B5A60264B9B68264A9360264B2D
:1001FC009B68234A93600821244801F0F3FE0346D0
:10020C001A46214B9A6000237B6031E01D4A7B68C3
:10021C0052F823201A497B6851F823309A4224D192
:10022C00174A7B6852F8232017497B6851F8233012
:10023C009A421AD1164A7B6852F8232012497B68DD
:10024C0051F823309A4210D00F4A7B6852F8232081
:10025C000F497B6841F823200B4A7B6852F8233006
:10026C00012B02D17868FFF785FF7B6801337B6037
:10027C007B68092BCADD00BF00BF0837BD4680BDB7
:10028C005C000020340000208400002000080140A5
:10029C00AC00002080B582B000AF7860396039685E
:1002AC00786800F07BFC114B1B685A1C0F490A60E4
:1002BC00002B03F00103B8BF5B42184600F0E2FCD0
:1002CC000B4B1B685A1C0A490A60002B03F00103F4
:1002DC00B8BF5B42184600F09DFC1921032001F0C9
:1002EC005BFA00BF0837BD4680BD00BF1801002077
:1002FC001401002080B500AF002001F065FA034620
:10030C00012B07D12021874801F09BFE642100209E
:10031C0001F042FA844B1B68013B042B00F2D381A1
:10032C0001A252F823F000BF49030008A103000802
:10033C006504000855050008170600087B4B0522CC
:10034C001A607B4B02221A607A4B03221A60764B9E
:10035C0002221A60774B1B68013B774A1360734B80
:10036C001B68013B754A13606421002001F014FAEC
:10037C00704B1B68642202FB03F31946012001F049
:10038C000BFA6421022001F007FA0121032001F08D
:10039C0003FAA1E101F062FA01F0BAFA032001F0CC
:1003AC0013FA0346012B07D1634B1B68634A12688F
:1003BC0011461846FFF76EFF022001F005FA0346BE
:1003CC00012B0DD15C4B1B68013B5B4A13605B4BF3
:1003DC001B68013B594A13606421022001F0DCF9CF
:1003EC00012001F0F1F90346012B10D14E4B0322F1
:1003FC001A604F4B1B68013B4F4A13604C4B1B68F8
:10040C00642202FB03F31946012001F0C5F9002018
:10041C00FFF796FE0346012B0DD1434B10221A60B9
:10042C004FF47A71012001F0B7F93221062001F066
:10043C00B3F901F09DFA0120FFF782FE0346012B70
:10044C0040F04381384B08221A603D4B0C221A6055
:10045C003C4B09221A6038E101F072FA032001F0DA
:10046C00B3F90346012B07D1334B1B68334A12688F
:10047C0011461846FFF70EFF022001F0A5F90346BE
:10048C00012B0DD12C4B1B68013B2B4A13602B4BC2
:10049C001B68013B294A13606421022001F07CF99E
:1004AC00012001F091F90346012B15D11E4B0422BA
:1004BC001A601E4B1B68013B1F4A13601D4B1B68C7
:1004CC00013B1E4A13601B4B1B68642202FB03F3A7
:1004DC001946012001F060F90020FFF731FE0346B8
:1004EC00012B0DD1104B10221A604FF47A710120A0
:1004FC0001F052F93221062001F04EF901F038FAE0
:10050C000120FFF71DFE0346012B40F0E080064B57
:10051C0008221A600A4B0C221A600A4B09221A6034
:10052C00D5E000BF00080140FC00002000000020C6
:10053C000400002008000020080100200C0100200D
:10054C00000100200401002001F09EF901F0C8F91F
:10055C00032001F039F90346012B07D15F4B1B68CF
:10056C005F4A126811461846FFF794FE022001F00C
:10057C002BF90346012B0DD1584B1B68013B574AF5
:10058C001360574B1B68013B554A136064210220D2
:10059C0001F002F9012001F017F90346012B10D1EB
:1005AC00504B05221A60504B1B68013B4C4A1360A0
:1005BC004D4B1B68642202FB03F31946012001F02A
:1005CC00EBF80020FFF7BCFD0346012B0DD1454B8A
:1005DC0010221A604FF47A71012001F0DDF83221FB
:1005EC00062001F0D9F801F0C3F90120FFF7A8FDAE
:1005FC000346012B6DD13B4B08221A603B4B0C225E
:10060C001A603B4B09221A6063E001F053F9032096
:10061C0001F0DAF80346012B07D1304B1B68304A46
:10062C00126811461846FFF735FE022001F0CCF88F
:10063C000346012B0DD1294B1B68013B274A136044
:10064C00274B1B68013B264A13606421022001F0F2
:10065C00A3F8012001F0B8F80346012B15D1214B6A
:10066C0002221A60234B1B68013B1C4A1360224B6D
:10067C001B68013B1A4A13601E4B1B68642202FB69
:10068C0003F31946012001F087F80020FFF758FD0D
:10069C000346012B0DD1134B10221A604FF47A71C3
:1006AC00012001F079F83221062001F075F801F0F3
:1006BC005FF90120FFF744FD0346012B0BD1094BD9
:1006CC0008221A6007E000BF06E000BF04E000BF8C
:1006DC0002E000BF00E000BF00BF80BD08010020A9
:1006EC000C010020FC000020040000200001002070
:1006FC0004010020080000200000002080B500AF9D
:10070C00964B1B68103B042B00F21C8101A252F883
:10071C0023F000BF35070008C5070008A308000830
:10072C005109000829090008062001F04DF803467C
:10073C00012B0CD140218A4801F083FC4FF400714D
:10074C00874801F07EFC3221062001F025F80020BC
:10075C00FFF7F6FC0346012B07D1804B12221A60DF
:10076C0001F006F97F4B00221A60032001F02CF8EF
:10077C000346012B05D17B4B1B6802211846FFF762
:10078C0089FD0120FFF7DCFC0346012B04D1754BDE
:10079C001B680133734A13600220FFF7D1FC034638
:1007AC00012B40F0D1806F4B1B686F4A13606D4B6F
:1007BC001B686E4A1360C7E0062001F005F803467B
:1007CC00012B0DD14FF40061654801F03AFC4FF458
:1007DC008071634801F035FC3221062000F0DCFF0B
:1007EC00032000F0F1FF0346012B05D15D4B1B6884
:1007FC0004211846FFF74EFD0120FFF7A1FC03462C
:10080C00012B04D1574B1B680133564A136002204D
:10081C00FFF796FC0346012B07D1524B1B68544A39
:10082C001360504B1B68514A13600020FFF788FC83
:10083C000346012B40F08A804A4B00221A604D4B34
:10084C001A684B4B1B681A44474B1B689A421AD1C7
:10085C00424B02221A60464B1B68013B434A136011
:10086C00414B1B68013B444A13606421022000F099
:10087C0093FF3F4B1B68642202FB03F319460120D4
:10088C0000F08AFF62E0354B14221A6064210420C8
:10089C0000F082FF5AE0062000F096FF0346012B81
:1008AC000CD180212E4801F0CCFB4FF480612C48F8
:1008BC0001F0C7FB3221062000F06EFF032000F090
:1008CC0083FF0346012B05D1264B1B6803211846D9
:1008DC00FFF7E0FC0020FFF733FC0346012B07D1A8
:1008EC001E4B11221A6001F043F81E4B00221A60B5
:1008FC000120FFF725FC0346012B04D1194B1B6883
:10090C000133184A13600220FFF71AFC0346012B2F
:10091C001ED1144B1B68174A136019E0032000F01A
:10092C0053FF0346002B03D063216320FFF7B2FC77
:10093C00042000F049FF0346002B0BD0074B01228B
:10094C001A6007E000BF06E000BF04E000BF02E051
:10095C0000BF00E000BF00BF80BD00BFFC00002056
:10096C0000080140100100200000002008010020B8
:10097C0008000020040000200C01002080B500AF0E
:10098C007F4B1B68082B03D00F2B00F0DB80F5E0AE
:10099C007C4B1B680E2B25D00E2B64DC0C2B02D051
:1009AC000D2B3ED05FE000F059FF0120FFF7C8FB94
:1009BC000346012B02D1734B0E221A60032000F068
:1009CC0003FF0346012B03D105216320FFF762FCD3
:1009DC000020FFF7B5FB0346012B41D1684B0F22DA
:1009EC001A603DE000F066FF0120FFF7A9FB03460B
:1009FC00012B02D1634B0D221A600020FFF7A0FBE4
:100A0C000346012B02D15E4B0F221A60032000F02B
:100A1C00DBFE0346012B25D105216320FFF73AFCB1
:100A2C0020E000F031FF0120FFF78AFB0346012B89
:100A3C0002D1544B0C221A600020FFF781FB0346B5
:100A4C00012B02D14E4B0F221A60032000F0BCFE8A
:100A5C000346012B07D105216320FFF71BFC02E0A5
:100A6C0000BF00E000BF484B1B680B2B26D00B2BA4
:100A7C0000F38380092B02D00A2B3ED07DE000F0DE
:100A8C002FFF0220FFF75CFB0346012B02D13E4BEC
:100A9C000B221A60032000F097FE0346012B03D1B2
:100AAC0005216320FFF7F6FB0020FFF749FB034607
:100ABC00012B41D1324B0F221A603DE000F040FF78
:100ACC000220FFF73DFB0346012B02D12E4B0A22DD
:100ADC001A60032000F078FE0346012B03D1052198
:100AEC006320FFF7D7FB0020FFF72AFB0346012BFF
:100AFC0024D1234B0F221A6020E000F009FF0220C2
:100B0C00FFF71EFB0346012B02D11F4B09221A6073
:100B1C00032000F059FE0346012B03D1052163206D
:100B2C00FFF7B8FB0020FFF70BFB0346012B07D1A7
:100B3C00134B0F221A6003E000BF1EE000BF1CE045
:100B4C0000BF1AE00E4B02221A60104B1B68013BCF
:100B5C000F4A13600F4B1B68013B0F4A1360642153
:100B6C00022000F019FE094B1B68642202FB03F300
:100B7C001946012000F010FE00E000BF00BF80BD50
:100B8C00FC000020000100200401002008000020CF
:100B9C0008010020000000200C01002080B483B06C
:100BAC0000AF786039607B68184A82FB03129210A0
:100BBC00DB17D31A164A13607968144B83FB012395
:100BCC009A10CB17D21A13469B0013445B00CA1A17
:100BDC000F4B5A603B680D4A82FB03129210DB17D5
:100BEC00D31A0B4A93603968084B83FB01239A1084
:100BFC00CB17D21A13469B0013445B00CA1A044B42
:100C0C00DA6000BF0C37BD4680BC7047676666660D
:100C1C001C01002080B582B000AF78607B68002B8F
:100C2C0003D07B68012B12D023E000224FF48051BB
:100C3C00124801F0EEF901224FF400510F4801F077
:100C4C00E8F90F4B1B68184600F054F811E000222D
:100C5C004FF40051094801F0DCF901224FF48051A6
:100C6C00064801F0D6F9064B5B68184600F042F8CE
:100C7C0000BF00BF0837BD4680BD00BF0008014063
:100C8C001C01002080B582B000AF78607B68002B1F
:100C9C0003D07B68012B12D023E000224FF480415B
:100CAC00124801F0B6F901224FF400410F4801F04F
:100CBC00B0F90F4B9B68184600F0CEF911E00022FA
:100CCC004FF40041094801F0A4F901224FF480418E
:100CDC00064801F09EF9064BDB68184600F0BCF99B
:100CEC0000BF00BF0837BD4680BD00BF00080140F3
:100CFC001C01002080B582B000AF78607B68092BA6
:100D0C0000F2808101A252F823F000BF410D0008CF
:100D1C00890D0008D10D0008190E0008610E00089D
:100D2C00A90E0008F10E0008390F0008810F000809
:100D3C00C90F000800220121C64801F06AF90022FF
:100D4C000221C44801F065F900220421C14801F0D8
:100D5C0060F900220821BF4801F05BF90022102144
:100D6C00BC4801F056F900222021BA4801F051F993
:100D7C0001224021B74801F04CF967E10122012121
:100D8C00B44801F046F901220821B24801F041F9BA
:100D9C0001221021AF4801F03CF901222021AD487D
:100DAC0001F037F901224021AA4801F032F9002262
:100DBC000221A84801F02DF900220421A54801F0D8
:100DCC0028F943E101220421A24801F022F9012271
:100DDC002021A04801F01DF9002201219D4801F0BD
:100DEC0018F9002202219B4801F013F90022082176
:100DFC00984801F00EF900221021964801F009F9EB
:100E0C0000224021934801F004F91FE10122102136
:100E1C00904801F0FEF8012220218E4801F0F9F8EB
:100E2C00002204218B4801F0F4F8002201218948AA
:100E3C0001F0EFF800220221864801F0EAF80022C6
:100E4C000821844801F0E5F800224021814801F096
:100E5C00E0F8FBE0002220217E4801F0DAF80022C5
:100E6C0040217C4801F0D5F800220221794801F09C
:100E7C00D0F800220421774801F0CBF8012201219F
:100E8C00744801F0C6F801220821724801F0C1F83B
:100E9C00012210216F4801F0BCF8D7E0002201219B
:100EAC006C4801F0B6F8002208216A4801F0B1F84C
:100EBC0000222021674801F0ACF80022402165484F
:100ECC0001F0A7F800220421624801F0A2F80122E7
:100EDC000221604801F09DF8012210215D4801F0CB
:100EEC0098F8B3E0002210215A4801F092F8002241
:100EFC000121584801F08DF800220821554801F0D5
:100F0C0088F800222021534801F083F80022402168
:100F1C00504801F07EF8002204214E4801F079F887
:100F2C00012202214B4801F074F88FE001221021BC
:100F3C00484801F06EF801222021464801F069F87A
:100F4C0001220821434801F064F801224021414864
:100F5C0001F05FF8002202213E4801F05AF800220D
:100F6C0001213C4801F055F800220421394801F0D8
:100F7C0050F86BE000221021364801F04AF80022AC
:100F8C002021344801F045F800220821314801F0B5
:100F9C0040F8002240212F4801F03BF800220121AB
:100FAC002C4801F036F8002202212A4801F031F8D1
:100FBC0000220421274801F02CF847E001221021DF
:100FCC00244801F026F800220121224801F021F8E2
:100FDC00002202211F4801F01CF8002204211D48A8
:100FEC0001F017F8002208211A4801F012F800222B
:100FFC004021184801F00DF800222021154801F07D
:10100C0008F823E001220121124801F002F8012224
:10101C000221104800F0FDFF012204210D4800F0D0
:10102C00F8FF012208210B4800F0F3FF01221021E8
:10103C00084800F0EEFF01222021064800F0E9FFED
:10104C0001224021034800F0E4FF00BF00BF083735
:10105C00BD4680BD000C014080B582B000AF786009
:10106C007B68092B00F2BE8101A252F823F000BF6D
:10107C00A5100008F91000084D110008A111000876
:10108C00F5110008491200089D120008F112000821
:10109C00451300089913000800228021D04800F065
:1010AC00B8FF00224FF48071CD4800F0B2FF00224F
:1010BC004FF40071CA4800F0ACFF00224FF480617D
:1010CC00C74800F0A6FF00224FF40061C44800F0AE
:1010DC00A0FF00224FF48051C14800F09AFF01227A
:1010EC004FF40051BE4800F094FFA5E1012280218D
:1010FC00BB4800F08EFF01224FF48061B84800F02D
:10110C0088FF01224FF40061B54800F082FF0122F4
:10111C004FF48051B24800F07CFF01224FF4005193
:10112C00AF4800F076FF00224FF48071AC4800F01D
:10113C0070FF00224FF40071A94800F06AFF7BE1B8
:10114C0001224FF40071A64800F063FF01224FF416
:10115C008051A34800F05DFF00228021A04800F0E0
:10116C0058FF00224FF480719D4800F052FF00227E
:10117C004FF480619A4800F04CFF00224FF400615C
:10118C00974800F046FF00224FF40051944800F0BD
:10119C0040FF51E101224FF40061914800F039FF0A
:1011AC0001224FF480518E4800F033FF00224FF49F
:1011BC0000718B4800F02DFF00228021884800F040
:1011CC0028FF00224FF48071854800F022FF002296
:1011DC004FF48061824800F01CFF00224FF4005154
:1011EC007F4800F016FF27E100224FF480517C4825
:1011FC0000F00FFF00224FF40051794800F009FF76
:10120C0000224FF48071764800F003FF00224FF467
:10121C000071734800F0FDFE01228021704800F03F
:10122C00F8FE01224FF480616D4800F0F2FE0122BD
:10123C004FF400616A4800F0ECFEFDE000228021D2
:10124C00674800F0E6FE00224FF48061644800F02D
:10125C00E0FE00224FF48051614800F0DAFE0022DB
:10126C004FF400515E4800F0D4FE00224FF40071A0
:10127C005B4800F0CEFE01224FF48071584800F01C
:10128C00C8FE01224FF40061554800F0C2FED3E0C5
:10129C0000224FF40061524800F0BBFE0022802176
:1012AC004F4800F0B6FE00224FF480614C4800F02D
:1012BC00B0FE00224FF48051494800F0AAFE0022F3
:1012CC004FF40051464800F0A4FE00224FF4007188
:1012DC00434800F09EFE01224FF48071404800F01C
:1012EC0098FEA9E001224FF400613D4800F091FE08
:1012FC0001224FF480513A4800F08BFE01224FF44A
:10130C008061374800F085FE01224FF400513448CB
:10131C0000F07FFE00224FF48071314800F079FE1E
:10132C00002280212E4800F074FE00224FF4007140
:10133C002B4800F06EFE7FE000224FF4006128483D
:10134C0000F067FE00224FF48051254800F061FE4A
:10135C0000224FF48061224800F05BFE00224FF423
:10136C0000511F4800F055FE002280211C4800F05F
:10137C0050FE00224FF48071194800F04AFE002202
:10138C004FF40071164800F044FE55E001224FF472
:10139C000061134800F03DFE00228021104800F04F
:1013AC0038FE00224FF480710D4800F032FE00220E
:1013BC004FF400710A4800F02CFE00224FF48061BB
:1013CC00074800F026FE00224FF40051044800F0BC
:1013DC0020FE00224FF48051014800F01AFE2BE051
:1013EC00000C014001228021154800F012FE012260
:1013FC004FF48071124800F00CFE01224FF4007182
:10140C000F4800F006FE01224FF480610C4800F0FA
:10141C0000FE01224FF40061094800F0FAFD0122A0
:10142C004FF48051064800F0F4FD01224FF40051B6
:10143C00034800F0EEFD00BF00BF0837BD4680BD7D
:10144C00000C014080B500AF00F0E0FA00F016F897
:10145C0000F09CF800F04EF8064801F039FA064B03
:10146C0001221A60FFF74AF9FEF744FFFFF786FAEC
:10147C0000BFF7E72C010020FC00002080B590B0E5
:10148C0000AF07F1180328220021184601F0ACFD2B
:10149C003B1D00221A605A609A60DA601A610223BE
:1014AC00BB610123BB621023FB6200237B6307F14A
:1014BC001803184600F0DEFD0346002B01D000F0A7
:1014CC00D3F80F237B600023BB600023FB60002359
:1014DC003B6100237B613B1D0021184601F04CF859
:1014EC000346002B01D000F0BFF800BF4037BD46CB
:1014FC0080BD000080B586B000AF07F10803002264
:10150C001A605A609A60DA603B4600221A605A6090
:10151C001D4B4FF080421A601B4B41F63F725A60D4
:10152C00194B00229A60184B0922DA60164B0022E4
:10153C001A61154B00229A61134801F079F90346A0
:10154C00002B01D000F090F84FF48053BB6007F1F2
:10155C00080319460C4801F0F7FA0346002B01D09A
:10156C0000F082F800233B6000237B603B46194669
:10157C00054801F0CFFC0346002B01D000F074F8B5
:10158C0000BF1837BD4680BD2C01002080B586B049
:10159C0000AF07F1080300221A605A609A60DA6003
:1015AC00284B9B69274A43F004039361254B9B69A5
:1015BC0003F004037B607B68224B9B69214A43F058
:1015CC00080393611F4B9B6903F008033B603B6866
:1015DC0000224FF6F0711C4800F01BFD002243F670
:1015EC00FF711A4800F015FD0E23BB600023FB6051
:1015FC0000233B6107F108031946134800F076FB02
:10160C004FF6F073BB600123FB6000233B610223A8
:10161C007B6107F1080319460B4800F067FB43F6A2
:10162C00FF73BB600123FB6000233B6102237B61E2
:10163C0007F108031946054800F058FB00BF18379E
:10164C00BD4680BD0010024000080140000C014066
:10165C0080B582B000AF7860FEF7A2FD00F0CEF846
:10166C0000BF0837BD4680BD80B400AF72B600BF66
:10167C0000BFFDE780B485B000AF154B9B69144AE1
:10168C0043F001039361124B9B6903F00103BB60B0
:10169C00BB680F4BDB690E4A43F08053D3610C4B94
:1016AC00DB6903F080537B607B680A4B5B68FB60F3
:1016BC00FB6823F0E063FB60FB6843F08063FB6036
:1016CC00044AFB68536000BF1437BD4680BC7047AA
:1016DC00001002400000014080B584B000AF78607B
:1016EC007B681B68B3F1804F13D10C4BDB690B4A41
:1016FC0043F00103D361094BDB6903F00103FB6089
:10170C00FB68002200211C2000F0B9FA1C2000F01C
:10171C00D2FA00BF1037BD4680BD00BF001002409A
:10172C0080B400AF00BFFDE780B400AF00BFFDE7A1
:10173C0080B400AF00BFFDE780B400AF00BFFDE791
:10174C0080B400AF00BFFDE780B400AF00BFBD4662
:10175C0080BC704780B400AF00BFBD4680BC7047F2
:10176C0080B400AF00BFBD4680BC704780B500AFF1
:10177C0000F092F900BF80BD80B500AF024801F0C7
:10178C00F3F800BF80BD00BF2C01002080B400AF77
:10179C0000BFBD4680BC704780B483B000AF78609A
:1017AC00396007497B683A6841F82320054A7B6811
:1017BC00002142F8231000BF0C37BD4680BC704797
:1017CC00740100209C01002080B483B000AF7860CD
:1017DC00094A7B6852F82330012B06D1064A7B68F4
:1017EC00002142F82310012300E0002318460C3797
:1017FC00BD4680BC704700BF9C01002080B483B004
:10180C0000AF00237B601CE0124A7B6852F8233047
:10181C00002B13DD0F4A7B6852F823305A1E0D49FA
:10182C007B6841F823200B4A7B6852F82330002B4D
:10183C0004DC094A7B68012142F823107B680133E0
:10184C007B607B68092BDFDD00BF00BF0C37BD461A
:10185C0080BC7047740100209C01002080B500AF53
:10186C0001224021074800F0D4FB00224FF4807184
:10187C00044800F0CEFB00228021024800F0C9FB96
:10188C0000BF80BD0008014080B500AF00224021A0
:10189C00074800F0BEFB01224FF48071044800F0B1
:1018AC00B8FB00228021024800F0B3FB00BF80BDD2
:1018BC000008014080B500AF00224021074800F02D
:1018CC00A8FB00224FF48071044800F0A2FB012217
:1018DC008021024800F09DFB00BF80BD0008014044
:1018EC0080B500AF01224FF40071084800F091FB65
:1018FC0000224FF40061054800F08BFB00224FF4EE
:10190C008061024800F085FB00BF80BD00080140EB
:10191C0080B500AF00224FF40071084800F079FB4D
:10192C0001224FF40061054800F073FB00224FF4D4
:10193C008061024800F06DFB00BF80BD00080140D3
:10194C0080B500AF00224FF40071084800F061FB35
:10195C0000224FF40061054800F05BFB01224FF4BC
:10196C008061024800F055FB00BF80BD00080140BB
:10197C0080B500AF00224021104800F04AFB002245
:10198C0080210E4800F045FB00224FF480710B487B
:10199C0000F03FFB00224FF40071084800F039FBC7
:1019AC0000224FF40061054800F033FB00224FF495
:1019BC008061024800F02DFB00BF80BD0008014093
:1019CC00FFF7E4FE0B480C490C4A002302E0D45804
:1019DC00C4500433C4188C42F9D3094A094C00236F
:1019EC0001E013600432A242FBD301F005FBFFF7C8
:1019FC0029FD7047000000201800002090300008DE
:101A0C0018000020C8010020FEE7000080B500AFE0
:101A1C00084B1B68074A43F010031360032000F0C7
:101A2C0023F90F2000F008F8FFF724FE00231846D6
:101A3C0080BD00BF0020024080B582B000AF78604E
:101A4C00124B1A68124B1B7819464FF47A73B3FB7E
:101A5C00F1F3B2FBF3F3184600F03BF90346002B0D
:101A6C0001D001230EE07B680F2B0AD80022796885
:101A7C004FF0FF3000F003F9064A7B681360002337
:101A8C0000E0012318460837BD4680BD0C0000203D
:101A9C00140000201000002080B400AF054B1B7810
:101AAC001A46054B1B681344034A136000BFBD461E
:101ABC0080BC704714000020C401002080B400AF2B
:101ACC00024B1B681846BD4680BC7047C401002001
:101ADC0080B485B000AF78607B6803F00703FB60CF
:101AEC000C4BDB68BB60BA684FF6FF031340BB605E
:101AFC00FB681A02BB68134343F0BF6343F4003323
:101B0C00BB60044ABB68D36000BF1437BD4680BCC1
:101B1C00704700BF00ED00E080B400AF044BDB6801
:101B2C001B0A03F007031846BD4680BC704700BF74
:101B3C0000ED00E080B483B000AF0346FB7197F971
:101B4C000730002B0BDBFB7903F01F02064997F9DA
:101B5C0007305B09012000FA02F241F8232000BF94
:101B6C000C37BD4680BC704700E100E080B483B008
:101B7C0000AF03463960FB7197F90730002B0ADB85
:101B8C003B68DAB20C4997F907301201D2B20B4418
:101B9C0083F800230AE03B68DAB20849FB7903F0CA
:101BAC000F03043B1201D2B20B441A7600BF0C3760
:101BBC00BD4680BC704700BF00E100E000ED00E0D6
:101BCC0080B489B000AFF860B9607A60FB6803F04C
:101BDC000703FB61FB69C3F10703042B28BF042334
:101BEC00BB61FB690433062B02D9FB69033B00E0A4
:101BFC0000237B614FF0FF32BB6902FA03F3DA4337
:101C0C00BB681A407B699A404FF0FF317B6901FA3F
:101C1C0003F3D9437B680B40134318462437BD4666
:101C2C0080BC704780B582B000AF78607B68013BA8
:101C3C00B3F1807F01D301230FE00A4A7B68013B9B
:101C4C0053600F214FF0FF30FFF790FF054B002240
:101C5C009A60044B07221A60002318460837BD46C9
:101C6C0080BD00BF10E000E080B582B000AF7860AE
:101C7C007868FFF72DFF00BF0837BD4680BD80B5E3
:101C8C0086B000AF0346B9607A60FB7300237B61BA
:101C9C00FFF742FF78617A68B9687869FFF790FFBF
:101CAC00024697F90F3011461846FFF75FFF00BF49
:101CBC001837BD4680BD80B582B000AF0346FB71BE
:101CCC0097F907301846FFF735FF00BF0837BD46B8
:101CDC0080BD80B582B000AF78607868FFF7A2FF56
:101CEC00034618460837BD4680BD000080B48BB053
:101CFC0000AF7860396000237B6200233B6261E1B6
:101D0C0001227B6A02FA03F3FB613B681B68FA69E8
:101D1C001340BB61BA69FB699A4240F050813B6841
:101D2C005B68974A93425ED0954A934275D8954A20
:101D3C00934258D0934A93426FD8934A934252D0CD
:101D4C00914A934269D8914A93424CD08F4A93421C
:101D5C0063D88F4A934246D08D4A93425DD8122B5A
:101D6C002AD8122B59D801A252F823F0F31D0008DF
:101D7C00CD1D0008DF1D0008211E0008271E0008CD
:101D8C00271E0008271E0008271E0008271E000813
:101D9C00271E0008271E0008271E0008271E000803
:101DAC00271E0008271E0008271E0008271E0008F3
:101DBC00D51D0008E91D0008764A934213D02CE08B
:101DCC003B68DB683B6229E03B68DB6804333B62C1
:101DDC0024E03B68DB6808333B621FE03B68DB6850
:101DEC000C333B621AE03B689B68002B02D1042346
:101DFC003B6213E03B689B68012B05D108233B62D7
:101E0C007B68FA691A6109E008233B627B68FA690E
:101E1C005A6103E000233B6200E000BFBB69FF2B6B
:101E2C0001D87B6801E07B6804337B61BB69FF2BC5
:101E3C0002D87B6A9B0002E07B6A083B9B003B61FB
:101E4C007B691A680F213B6901FA03F3DB431A40E3
:101E5C00396A3B6901FA03F31A437B691A603B68E0
:101E6C005B6803F08053002B00F0A9804A4B9B6900
:101E7C00494A43F001039361474B9B6903F001030B
:101E8C00BB60BB68454A7B6A9B08023352F823301F
:101E9C00FB607B6A03F003039B000F2202FA03F33F
:101EAC00DB43FA681340FB607B683D4A93420DD0DC
:101EBC007B683C4A934207D07B683B4A934201D1F2
:101ECC00022304E0032302E0012300E000237A6AEA
:101EDC0002F0030292009340FA681343FB602F490F
:101EEC007B6A9B080233FA6841F823203B685B68E5
:101EFC0003F48013002B06D02C4B9A682B49BB693A
:101F0C0013438B6006E0294B9A68BB69DB43274976
:101F1C0013408B603B685B6803F40013002B06D006
:101F2C00224BDA682149BB691343CB6006E01F4B97
:101F3C00DA68BB69DB431D491340CB603B685B68C7
:101F4C0003F40033002B06D0184B5A681749BB69B1
:101F5C0013434B6006E0154B5A68BB69DB431349CE
:101F6C0013404B603B685B6803F48033002B1FD03D
:101F7C000E4B1A680D49BB6913430B601FE000BF81
:101F8C00000032100000311000002210000021105F
:101F9C00000012100000111000100240000001405F
:101FAC0000080140000C01400010014000040140F9
:101FBC000B4B1A68BB69DB43094913400B607B6A06
:101FCC0001337B623B681A687B6A22FA03F3002BAD
:101FDC007FF496AE00BF00BF2C37BD4680BC704767
:101FEC000004014080B485B000AF78600B467B8064
:101FFC007B689A687B881340002B02D00123FB730B
:10200C0001E00023FB73FB7B18461437BD4680BCF4
:10201C00704780B483B000AF78600B467B8013466A
:10202C007B707B78002B03D07A887B681A6103E085
:10203C007B881A047B681A6100BF0C37BD4680BCD4
:10204C00704780B485B000AF78600B467B807B68AE
:10205C00DB68FB607A88FB6813401A04FB68D94381
:10206C007B880B401A437B681A6100BF1437BD464E
:10207C0080BC704780B586B000AF78607B68002B61
:10208C0001D1012372E27B681B6803F00103002B72
:10209C0000F08780924B5B6803F00C03042B0CD090
:1020AC008F4B5B6803F00C03082B12D18C4B5B68D5
:1020BC0003F48033B3F5803F0BD1894B1B6803F4D9
:1020CC000033002B6CD07B685B68002B68D101233C
:1020DC004CE27B685B68B3F5803F06D1804B1B6894
:1020EC007F4A43F4803313602EE07B685B68002BDF
:1020FC000CD17B4B1B687A4A23F480331360784BEA
:10210C001B68774A23F4802313601DE07B685B68AF
:10211C00B3F5A02F0CD1724B1B68714A43F480238A
:10212C0013606F4B1B686E4A43F4803313600BE0F3
:10213C006B4B1B686A4A23F480331360684B1B6833
:10214C00674A23F4802313607B685B68002B13D0F1
:10215C00FFF7B4FC386108E0FFF7B0FC02463B69BE
:10216C00D31A642B01D9032300E25D4B1B6803F4E3
:10217C000033002BF0D014E0FFF7A0FC386108E02E
:10218C00FFF79CFC02463B69D31A642B01D903234D
:10219C00ECE1534B1B6803F40033002BF0D100E04F
:1021AC0000BF7B681B6803F00203002B63D04C4B11
:1021BC005B6803F00C03002B0BD0494B5B6803F0FE
:1021CC000C03082B1CD1464B5B6803F48033002BAB
:1021DC0016D1434B1B6803F00203002B05D07B6820
:1021EC001B69012B01D00123C0E13D4B1B6823F07F
:1021FC00F8027B685B69DB00394913430B603AE0FA
:10220C007B681B69002B20D0364B01221A60FFF72C
:10221C0055FC386108E0FFF751FC02463B69D31AC4
:10222C00022B01D90323A1E12D4B1B6803F0020300
:10223C00002BF0D02A4B1B6823F0F8027B685B69FB
:10224C00DB00274913430B6015E0264B00221A6074
:10225C00FFF734FC386108E0FFF730FC02463B69BD
:10226C00D31A022B01D9032380E11D4B1B6803F009
:10227C000203002BF0D17B681B6803F00803002BD2
:10228C003AD07B689B69002B19D0174B01221A603E
:10229C00FFF714FC386108E0FFF710FC02463B69BD
:1022AC00D31A022B01D9032360E10D4B5B6A03F0B7
:1022BC000203002BF0D0012000F09CFA1CE00A4B2A
:1022CC0000221A60FFF7FAFB38610FE0FFF7F6FB0C
:1022DC0002463B69D31A022B08D9032346E100BFFF
:1022EC00001002400000424280044242924B5B6A62
:1022FC0003F00203002BE9D17B681B6803F0040395
:10230C00002B00F0A6800023FB758B4BDB6903F0E0
:10231C008053002B0DD1884BDB69874A43F08053E7
:10232C00D361854BDB6903F08053BB60BB68012331
:10233C00FB75824B1B6803F48073002B18D17F4B09
:10234C001B687E4A43F480731360FFF7B7FB386158
:10235C0008E0FFF7B3FB02463B69D31A642B01D9A3
:10236C00032303E1754B1B6803F48073002BF0D03F
:10237C007B68DB68012B06D16F4B1B6A6E4A43F0FE
:10238C00010313622DE07B68DB68002B0CD16A4BD8
:10239C001B6A694A23F001031362674B1B6A664A86
:1023AC0023F0040313621CE07B68DB68052B0CD163
:1023BC00614B1B6A604A43F0040313625E4B1B6A59
:1023CC005D4A43F0010313620BE05B4B1B6A5A4AF4
:1023DC0023F001031362584B1B6A574A23F0040382
:1023EC0013627B68DB68002B15D0FFF767FB386145
:1023FC000AE0FFF763FB02463B69D31A41F28832CD
:10240C00934201D90323B1E04B4B1B6A03F0020347
:10241C00002BEED014E0FFF751FB38610AE0FFF718
:10242C004DFB02463B69D31A41F28832934201D9E3
:10243C0003239BE0404B1B6A03F00203002BEED1FD
:10244C00FB7D012B05D13C4BDB693B4A23F08053D0
:10245C00D3617B68DB69002B00F08780364B5B68AF
:10246C0003F00C03082B61D07B68DB69022B46D18F
:10247C00334B00221A60FFF721FB386108E0FFF7AD
:10248C001DFB02463B69D31A022B01D903236DE0D5
:10249C00294B1B6803F00073002BF0D17B681B6A7F
:1024AC00B3F5803F08D1244B5B6823F400327B6882
:1024BC009B68214913434B601F4B5B6823F47412D8
:1024CC007B68196A7B685B6A0B431B4913434B603F
:1024DC001B4B01221A60FFF7F1FA386108E0FFF795
:1024EC00EDFA02463B69D31A022B01D903233DE0D6
:1024FC00114B1B6803F00073002BF0D035E0104B30
:10250C0000221A60FFF7DAFA386108E0FFF7D6FA12
:10251C0002463B69D31A022B01D9032326E0064B52
:10252C001B6803F00073002BF0D11EE07B68DB69A5
:10253C00012B07D1012319E000100240007000406C
:10254C00600042420B4B5B68FB60FB6803F480321B
:10255C007B681B6A9A4206D1FB6803F470127B6895
:10256C005B6A9A4201D0012300E000231846183719
:10257C00BD4680BD0010024080B584B000AF7860CD
:10258C0039607B68002B01D10123D0E06A4B1B68BA
:10259C0003F007033A689A4210D9674B1B6823F083
:1025AC00070265493B6813430B60634B1B6803F0E0
:1025BC0007033A689A4201D00123B8E07B681B6894
:1025CC0003F00203002B20D07B681B6803F004038C
:1025DC00002B05D0594B5B68584A43F4E0635360B9
:1025EC007B681B6803F00803002B05D0534B5B681A
:1025FC00524A43F460535360504B5B6823F0F00233
:10260C007B689B684D4913434B607B681B6803F0E8
:10261C000103002B40D07B685B68012B07D1474B33
:10262C001B6803F40033002B15D101237FE07B687A
:10263C005B68022B07D1414B1B6803F00073002B26
:10264C0009D1012373E03D4B1B6803F00203002BFF
:10265C0001D101236BE0394B5B6823F003027B68EB
:10266C005B68364913434B60FFF728FAF8600AE0C1
:10267C00FFF724FA0246FB68D31A41F288329342E0
:10268C0001D9032353E02D4B5B6803F00C027B68EC
:10269C005B689B009A42EBD1274B1B6803F0070346
:1026AC003A689A4210D2244B1B6823F00702224945
:1026BC003B6813430B60204B1B6803F007033A681D
:1026CC009A4201D0012332E07B681B6803F00403BB
:1026DC00002B08D0194B5B6823F4E0627B68DB6845
:1026EC00164913434B607B681B6803F00803002BEF
:1026FC0009D0124B5B6823F460527B681B69DB00CA
:10270C000E4913434B6000F021F802460B4B5B68FB
:10271C001B0903F00F030A49CB5C22FA03F3094AA5
:10272C001360094B1B681846FFF786F900231846FF
:10273C001037BD4680BD00BF002002400010024093
:10274C00643000080C0000201000002080B487B01A
:10275C0000AF0023FB600023BB6000237B610023E0
:10276C007B6000233B611E4B5B68FB60FB6803F0E6
:10277C000C03042B02D0082B03D027E0194B3B6130
:10278C0027E0FB689B0C03F00F03174AD35C7B60BC
:10279C00FB6803F48033002B10D0114B5B685B0C8F
:1027AC0003F00103114AD35CBB607B680D4A03FB49
:1027BC0002F2BB68B2FBF3F37B6104E07B680C4A6A
:1027CC0002FB03F37B617B693B6102E0054B3B61E0
:1027DC0000BF3B6918461C37BD4680BC704700BF24
:1027EC000010024000127A00743000088430000897
:1027FC0000093D0080B485B000AF78600A4B1B68BF
:10280C000A4AA2FB03235B0A7A6802FB03F3FB6010
:10281C0000BFFB685A1EFA60002BF9D100BF00BF45
:10282C001437BD4680BC70470C000020D34D62109D
:10283C0080B582B000AF78607B68002B01D101239A
:10284C0041E07B6893F83D30DBB2002B06D17B680E
:10285C00002283F83C207868FEF73EFF7B6802225A
:10286C0083F83D207B681A687B6804331946104650
:10287C0000F056FA7B68012283F846207B6801221F
:10288C0083F83E207B68012283F83F207B6801227D
:10289C0083F840207B68012283F841207B68012269
:1028AC0083F842207B68012283F843207B68012255
:1028BC0083F844207B68012283F845207B68012241
:1028CC0083F83D20002318460837BD4680BD000024
:1028DC0080B485B000AF78607B6893F83D30DBB294
:1028EC00012B01D0012335E07B68022283F83D20C7
:1028FC007B681B68DA687B681B6842F00102DA604F
:10290C007B681B68164A934209D07B681B68B3F13D
:10291C00804F04D07B681B68124A934211D17B68AC
:10292C001B689B6803F00703FB60FB68062B10D049
:10293C007B681B681A687B681B6842F001021A608E
:10294C0007E07B681B681A687B681B6842F0010211
:10295C001A60002318461437BD4680BC704700BF70
:10296C00002C01400004004080B584B000AF7860BA
:10297C007B681B68DB68FB607B681B681B69BB6042
:10298C00BB6803F00203002B20D0FB6803F00203AA
:10299C00002B1BD07B681B686FF002021A617B68EE
:1029AC0001221A777B681B689B6903F00303002BD9
:1029BC0003D0786800F098F905E0786800F08BF99E
:1029CC00786800F09AF97B6800221A77BB6803F0EC
:1029DC000403002B20D0FB6803F00403002B1BD056
:1029EC007B681B686FF004021A617B6802221A77FD
:1029FC007B681B689B6903F44073002B03D07868D9
:102A0C0000F072F905E0786800F065F9786800F07C
:102A1C0074F97B6800221A77BB6803F00803002B5B
:102A2C0020D0FB6803F00803002B1BD07B681B68CD
:102A3C006FF008021A617B6804221A777B681B68A6
:102A4C00DB6903F00303002B03D0786800F04CF92A
:102A5C0005E0786800F03FF9786800F04EF97B6883
:102A6C0000221A77BB6803F01003002B20D0FB6800
:102A7C0003F01003002B1BD07B681B686FF0100257
:102A8C001A617B6808221A777B681B68DB6903F480
:102A9C004073002B03D0786800F026F905E07868C5
:102AAC0000F019F9786800F028F97B6800221A7791
:102ABC00BB6803F00103002B0CD0FB6803F001038F
:102ACC00002B07D07B681B686FF001021A617868D5
:102ADC00FEF7BEFDBB6803F08003002B0CD0FB6837
:102AEC0003F08003002B07D07B681B686FF080021B
:102AFC001A61786800F06FFABB6803F04003002B92
:102B0C000CD0FB6803F04003002B07D07B681B68DC
:102B1C006FF040021A61786800F0F8F8BB6803F0B7
:102B2C002003002B0CD0FB6803F02003002B07D0F4
:102B3C007B681B686FF020021A61786800F042FA1B
:102B4C0000BF1037BD4680BD80B584B000AF786043
:102B5C0039600023FB737B6893F83C30012B01D167
:102B6C000223B4E07B68012283F83C207B680222BC
:102B7C0083F83D207B681B689B68BB60BB6823F0B7
:102B8C007703BB60BB6823F47F43BB607B681B6827
:102B9C00BA689A603B681B68B3F5005F3ED0B3F52A
:102BAC00005F00F28780B3F5805F00F08680B3F59C
:102BBC00805F7FD8702B1AD0702B7BD8602B50D0B5
:102BCC00602B77D8502B3CD0502B73D8402B58D03F
:102BDC00402B6FD8302B64D0302B6BD8202B60D08F
:102BEC00202B67D8002B5CD0102B5AD062E07B686E
:102BFC0018683B6899683B685A683B68DB6800F06A
:102C0C006AF97B681B689B68BB60BB6843F0770301
:102C1C00BB607B681B68BA689A604FE07B68186879
:102C2C003B6899683B685A683B68DB6800F053F96D
:102C3C007B681B689A687B681B6842F480429A60C8
:102C4C003CE07B6818683B6859683B68DB681A464F
:102C5C0000F0CAF87B681B685021184600F021F977
:102C6C002CE07B6818683B6859683B68DB681A463F
:102C7C0000F0E8F87B681B686021184600F011F939
:102C8C001CE07B6818683B6859683B68DB681A462F
:102C9C0000F0AAF87B681B684021184600F001F987
:102CAC000CE07B681A683B681B681946104600F0FC
:102CBC00F8F803E00123FB7300E000BF7B680122FE
:102CCC0083F83D207B68002283F83C20FB7B184670
:102CDC001037BD4680BD80B483B000AF786000BFB4
:102CEC000C37BD4680BC704780B483B000AF7860B1
:102CFC0000BF0C37BD4680BC704780B483B000AFBA
:102D0C00786000BF0C37BD4680BC704780B483B080
:102D1C0000AF786000BF0C37BD4680BC7047000028
:102D2C0080B485B000AF786039607B681B68FB604D
:102D3C007B682B4A934207D07B68B3F1804F03D05A
:102D4C007B68284A934208D1FB6823F07003FB6030
:102D5C003B685B68FA681343FB607B68204A9342CC
:102D6C0007D07B68B3F1804F03D07B681D4A934238
:102D7C0008D1FB6823F44073FB603B68DB68FA689E
:102D8C001343FB60FB6823F080023B685B691343D1
:102D9C00FB607B68FA681A603B689A687B68DA6249
:102DAC003B681A687B689A627B680D4A934203D130
:102DBC003B681A697B681A637B6801225A617B68DD
:102DCC001B6903F00103002B05D07B681B6923F002
:102DDC0001027B681A6100BF1437BD4680BC704786
:102DEC00002C01400004004080B487B000AFF860B4
:102DFC00B9607A60FB681B6A7B61FB681B6A23F015
:102E0C000102FB681A62FB689B693B613B6923F01A
:102E1C00F0033B617B681B013A6913433B617B699F
:102E2C0023F00A037B617A69BB6813437B61FB68FF
:102E3C003A699A61FB687A691A6200BF1C37BD4611
:102E4C0080BC704780B487B000AFF860B9607A601E
:102E5C00FB681B6A7B61FB681B6A23F01002FB6832
:102E6C001A62FB689B693B613B6923F470433B61CD
:102E7C007B681B033A6913433B617B6923F0A00316
:102E8C007B61BB681B017A6913437B61FB683A6900
:102E9C009A61FB687A691A6200BF1C37BD4680BC18
:102EAC00704780B485B000AF786039607B689B68F0
:102EBC00FB60FB6823F07003FB603A68FB6813430C
:102ECC0043F00703FB607B68FA689A6000BF143715
:102EDC00BD4680BC704780B487B000AFF860B96065
:102EEC007A603B60FB689B687B617B6923F47F4362
:102EFC007B613B681A027B681A43BB6813437A698F
:102F0C0013437B61FB687A699A6000BF1C37BD462E
:102F1C0080BC704780B485B000AF786039607B6846
:102F2C0093F83C30012B01D1022341E07B68012254
:102F3C0083F83C207B68022283F83D207B681B6869
:102F4C005B68FB607B681B689B68BB60FB6823F05D
:102F5C007003FB603B681B68FA681343FB607B687B
:102F6C001B68FA685A607B681B68144A934209D044
:102F7C007B681B68B3F1804F04D07B681B68104AD8
:102F8C0093420CD1BB6823F08003BB603B685B6849
:102F9C00BA681343BB607B681B68BA689A607B682D
:102FAC00012283F83D207B68002283F83C2000231B
:102FBC0018461437BD4680BC704700BF002C01403A
:102FCC000004004080B483B000AF786000BF0C37C1
:102FDC00BD4680BC704780B483B000AF786000BF42
:102FEC000C37BD4680BC704703460244934200D167
:102FFC00704703F8011BF9E770B500260C4D0D4C1A
:10300C00641BA410A64209D100F01AF800260A4D40
:10301C000A4C641BA410A64205D170BD55F8043BA4
:10302C0098470136EEE755F8043B98470136F2E72E
:10303C008830000888300008883000088C30000880
:10304C00F8B500BFF8BC08BC9E467047F8B500BF89
:08305C00F8BC08BC9E46704759
:103064000000000000000000010203040607080934
:1030740002030405060708090A0B0C0D0E0F1010B5
:043084000102000045
:04308800310100080A
:04308C000D0100082A
:1030900005000000020000000300000000127A009A
:0830A000100000000100000017
:04000005080019CD09
:00000001FF
