:020000040800F2
:10000000002800200917000869140008711400086E
:100010007914000881140008891400080000000009
:100020000000000000000000000000009114000823
:100030009D14000800000000A9140008B514000871
:1000400051170008511700085117000851170008F0
:1000500051170008511700085117000851170008E0
:1000600051170008511700085117000851170008D0
:1000700051170008511700085117000851170008C0
:1000800051170008511700085117000851170008B0
:1000900051170008511700085117000851170008A0
:1000A0005117000851170008511700085117000890
:1000B000C114000851170008000000005117000883
:1000C0005117000800000000000000005117000850
:1000D0000000000051170008511700080000000040
:1000E00051170008511700085117000800000000C0
:1000F0000000000000000000000000000000000000
:0C01000000000000000000005FF808F1A3
:10010C0010B5054C237833B9044B13B10448AFF345
:10011C0000800123237010BD180000200000000097
:10012C00882D000808B5034B1BB103490348AFF3F6
:10013C00008008BD000000001C000020882D000875
:10014C0080B483B000AF7860094A7B6852F82330E2
:10015C00012B06D1064A7B68002142F823100123AB
:10016C0000E0002318460C37BD4680BC704700BF2A
:10017C00D400002080B582B000AF7860064A7B685E
:10018C00012142F823101021044801F0F8FD00BFB2
:10019C000837BD4680BD00BFD400002000080140D8
:1001AC0080B582B000AF364B1B68364A1360364BB5
:1001BC001B68334A13600221344801F0B1FD034639
:1001CC001A46314B1A602E4B5B682E4A53602E4BED
:1001DC005B682B4A536004212C4801F0A1FD0346B7
:1001EC001A46294B5A60264B9B68264A9360264B2D
:1001FC009B68234A93600821244801F091FD034633
:10020C001A46214B9A6000237B6031E01D4A7B68C3
:10021C0052F823201A497B6851F823309A4224D192
:10022C00174A7B6852F8232017497B6851F8233012
:10023C009A421AD1164A7B6852F8232012497B68DD
:10024C0051F823309A4210D00F4A7B6852F8232081
:10025C000F497B6841F823200B4A7B6852F8233006
:10026C00012B02D17868FFF785FF7B6801337B6037
:10027C007B68092BCADD00BF00BF0837BD4680BDB7
:10028C005C000020340000208400002000080140A5
:10029C00AC00002080B582B000AF7860396039685E
:1002AC00786800F019FB114B1B685A1C0F490A6047
:1002BC00002B03F00103B8BF5B42184600F080FB33
:1002CC000B4B1B685A1C0A490A60002B03F00103F4
:1002DC00B8BF5B42184600F03BFB1921032001F02C
:1002EC00F9F800BF0837BD4680BD00BF10010020E3
:1002FC000C01002080B500AF002001F003F903468B
:10030C00012B07D12021A54801F039FD64210020E3
:10031C0001F0E0F8A24B1B68013B042B00F2A58115
:10032C0001A252F823F000BF49030008990300080A
:10033C005704000807050008C905000801F02CF94E
:10034C00984B00221A60964B02221A60964B1B683F
:10035C00013B964A1360964B1B68013B954A136010
:10036C006421002001F0B6F88F4B1B68642202FB5D
:10037C0003F31946012001F0ADF86421022001F0CD
:10038C00A9F80121032001F0A5F877E101F02CF97F
:10039C0001F084F9032001F0B5F80346012B07D1D5
:1003AC00824B1B68834A126811461846FFF772FF8E
:1003BC00022001F0A7F80346012B11D17B4B1B68DF
:1003CC00002B04DD794B1B68013B784A1360794B99
:1003DC001B68013B774A13606421022001F07AF814
:1003EC00012001F08FF80346012B10D16C4B032236
:1003FC001A60714B1B68013B6C4A13606E4B1B6897
:10040C00642202FB03F31946012001F063F8032078
:10041C0001F078F80346012B07D1644B1B68654A41
:10042C00126811461846FFF735FF0020FFF788FECB
:10043C000346012B40F01B81594B0C221A604FF4E0
:10044C007A71012001F046F811E101F03FF9022028
:10045C0001F058F80346012B15D1544B1B68002BA7
:10046C0004DD524B1B68013B504A1360514B1B6817
:10047C00002B04DD4F4B1B68013B4E4A136064217B
:10048C00022001F027F8012001F03CF80346012B73
:10049C0015D1434B04221A60454B1B68013B434A60
:1004AC001360414B1B68013B424A13603E4B1B6877
:1004BC00642202FB03F31946012001F00BF8032020
:1004CC0001F020F80346012B07D1384B1B68394A41
:1004DC00126811461846FFF7DDFE0020FFF730FECC
:1004EC000346012B40F0C5802D4B0C221A604FF4B3
:1004FC007A71012000F0EEFFBBE001F08BF801F007
:10050C00B5F8022000F0FEFF0346012B11D1274B5A
:10051C001B68013B254A1360264B1B68002B04DD2E
:10052C00244B1B68013B234A13606421022000F01A
:10053C00D1FF012000F0E6FF0346012B10D1184B30
:10054C0005221A601C4B1B68013B1A4A13601A4B9C
:10055C001B68642202FB03F31946012000F0BAFF6A
:10056C00032000F0CFFF0346012B07D10F4B1B6874
:10057C00104A126811461846FFF78CFE0020FFF750
:10058C00DFFD0346012B76D1054B0C221A604FF48C
:10059C007A71012000F09EFF6DE000BF0008014061
:1005AC00FC000020080100200800002000010020B1
:1005BC0000000020040100200400002001F040F89D
:1005CC00022000F09FFF0346012B15D12C4B1B681A
:1005DC00002B04DD2A4B1B68013B294A1360294B75
:1005EC001B68002B04DD274B1B68013B254A13605D
:1005FC006421022000F06EFF012000F083FF03460F
:10060C00012B15D1204B02221A60204B1B68013B99
:10061C001B4A13601E4B1B68013B1A4A13601B4B91
:10062C001B68642202FB03F31946012000F052FF01
:10063C00032000F067FF0346012B07D1104B1B680A
:10064C00104A126811461846FFF724FE0020FFF7E7
:10065C0077FD0346012B10D10B4B0C221A604FF483
:10066C007A71012000F036FF07E000BF06E000BF02
:10067C0004E000BF02E000BF00E000BF00BF80BD8F
:10068C000001002004010020FC00002008000020D4
:10069C000000002080B500AF854B1B680E2B00F0CE
:1006AC00B0800E2B00F3FA800C2B02D00D2B56D001
:1006BC00F4E000F099FF00F0D9FF7E4B02221A60A3
:1006CC00012000F01FFF0346012B0BD1784B0222B7
:1006DC001A60794B1B68642202FB03F31946012054
:1006EC0000F0F8FE0020FFF72BFD0346012B0AD18A
:1006FC006F4B0E221A60714B00221A604FF47A7104
:10070C00012000F0E7FE032000F0FCFE0346012B65
:10071C0005D16A4B1B6802211846FFF7BBFD01206F
:10072C00FFF70EFD0346012B09D1644B1B68013307
:10073C00624A13604FF47A71012000F0CBFE022064
:10074C00FFF7FEFC0346012B40F0AA805B4B1B68B5
:10075C005B4A1360594B1B685A4A1360A0E000F0C7
:10076C0059FF00F09BFF534B04221A60012000F04C
:10077C00C9FE0346012B0BD14D4B02221A604E4B86
:10078C001B68642202FB03F31946012000F0A2FE51
:10079C00032000F0B7FE0346012B05D1474B1B6825
:1007AC0004211846FFF776FD0020FFF7C9FC03462D
:1007BC00012B07D13E4B01221A604FF47A710120B4
:1007CC0000F088FE0120FFF7BBFC0346012B09D18A
:1007DC003A4B1B680133394A13604FF47A7101208C
:1007EC0000F078FE0220FFF7ABFC0346012B59D139
:1007FC00324B1B68304A1360304B1B68314A136014
:10080C0050E000F01DFF00F061FF012000F07AFEC7
:10081C000346012B0BD1264B02221A60264B1B6878
:10082C00642202FB03F31946012000F053FE03205F
:10083C0000F068FE0346012B05D1204B1B680321F9
:10084C001846FFF727FD0020FFF77AFC0346012B23
:10085C0005D1174B0D221A60184B00221A6001208B
:10086C00FFF76EFC0346012B09D1144B1B680133B7
:10087C00124A13604FF47A71012000F02BFE022013
:10088C00FFF75EFC0346012B0ED10C4B1B680E4A86
:10089C0013600A4B1B680B4A136005E000BF04E0B1
:1008AC0000BF02E000BF00E000BF00BF80BD00BF82
:1008BC00FC0000200401002008000020080100209A
:1008CC0000000020000100200400002080B400AFD4
:1008DC0000BFBD4680BC704780B483B000AF786069
:1008EC0039607B68184A82FB03129210DB17D31A0B
:1008FC00164A13607968144B83FB01239A10CB17AB
:10090C00D21A13469B0013445B00CA1A0F4B5A6051
:10091C003B680D4A82FB03129210DB17D31A0B4A69
:10092C0093603968084B83FB01239A10CB17D21ABA
:10093C0013469B0013445B00CA1A044BDA6000BFD9
:10094C000C37BD4680BC7047676666661401002094
:10095C0080B582B000AF78607B68002B03D07B68D9
:10096C00012B12D023E000224FF48051124801F0E9
:10097C00EEF901224FF400510F4801F0E8F90F4B4A
:10098C001B68184600F054F811E000224FF4005197
:10099C00094801F0DCF901224FF48051064801F0BE
:1009AC00D6F9064B5B68184600F042F800BF00BF52
:1009BC000837BD4680BD00BF00080140140100206F
:1009CC0080B582B000AF78607B68002B03D07B6869
:1009DC00012B12D023E000224FF48041124801F089
:1009EC00B6F901224FF400410F4801F0B0F90F4B5A
:1009FC009B68184600F0CEF911E000224FF400413C
:100A0C00094801F0A4F901224FF48041064801F095
:100A1C009EF9064BDB68184600F0BCF900BF00BF1E
:100A2C000837BD4680BD00BF0008014014010020FE
:100A3C0080B582B000AF78607B68092B00F28081B2
:100A4C0001A252F823F000BF7D0A0008C50A000875
:100A5C000D0B0008550B00089D0B0008E50B00085A
:100A6C002D0C0008750C0008BD0C0008050D0008C5
:100A7C0000220121C64801F06AF900220221C44873
:100A8C0001F065F900220421C14801F060F900224F
:100A9C000821BF4801F05BF900221021BC4801F08D
:100AAC0056F900222021BA4801F051F901224021C7
:100ABC00B74801F04CF967E101220121B44801F07B
:100ACC0046F901220821B24801F041F90122102116
:100ADC00AF4801F03CF901222021AD4801F037F973
:100AEC0001224021AA4801F032F900220221A84833
:100AFC0001F02DF900220421A54801F028F943E169
:100B0C0001220421A24801F022F901222021A0484F
:100B1C0001F01DF9002201219D4801F018F9002275
:100B2C0002219B4801F013F900220821984801F09A
:100B3C000EF900221021964801F009F900224021FB
:100B4C00934801F004F91FE101221021904801F0B3
:100B5C00FEF8012220218E4801F0F9F80022042130
:100B6C008B4801F0F4F800220121894801F0EFF8DC
:100B7C0000220221864801F0EAF80022082184486C
:100B8C0001F0E5F800224021814801F0E0F8FBE09B
:100B9C00002220217E4801F0DAF8002240217C4816
:100BAC0001F0D5F800220221794801F0D0F800229A
:100BBC000421774801F0CBF801220121744801F09F
:100BCC00C6F801220821724801F0C1F80122102157
:100BDC006F4801F0BCF8D7E0002201216C4801F00D
:100BEC00B6F8002208216A4801F0B1F80022202151
:100BFC00674801F0ACF800224021654801F0A7F8E5
:100C0C0000220421624801F0A2F80122022160486E
:100C1C0001F09DF8012210215D4801F098F8B3E035
:100C2C00002210215A4801F092F800220121584864
:100C3C0001F08DF800220821554801F088F80022B7
:100C4C002021534801F083F800224021504801F044
:100C5C007EF8002204214E4801F079F8012202218D
:100C6C004B4801F074F88FE001221021484801F044
:100C7C006EF801222021464801F069F80122082172
:100C8C00434801F064F801224021414801F05FF82B
:100C9C00002202213E4801F05AF8002201213C4872
:100CAC0001F055F800220421394801F050F86BE0AE
:100CBC0000221021364801F04AF800222021344845
:100CCC0001F045F800220821314801F040F80022DB
:100CDC0040212F4801F03BF8002201212C4801F063
:100CEC0036F8002202212A4801F031F800220421B2
:100CFC00274801F02CF847E001221021244801F08C
:100D0C0026F800220121224801F021F800220221BC
:100D1C001F4801F01CF8002204211D4801F017F8AF
:100D2C00002208211A4801F012F80022402118482C
:100D3C0001F00DF800222021154801F008F823E0FD
:100D4C0001220121124801F002F80122022110486F
:100D5C0000F0FDFF012204210D4800F0F8FF0122F4
:100D6C0008210B4800F0F3FF01221021084800F085
:100D7C00EEFF01222021064800F0E9FF012240216C
:100D8C00034800F0E4FF00BF00BF0837BD4680BD3C
:100D9C00000C014080B582B000AF78607B68092BF5
:100DAC0000F2BE8101A252F823F000BFE10D000851
:100DBC00350E0008890E0008DD0E0008310F000802
:100DCC00850F0008D90F00082D10000881100008AD
:100DDC00D510000800228021D04800F0B8FF002276
:100DEC004FF48071CD4800F0B2FF00224FF4007137
:100DFC00CA4800F0ACFF00224FF48061C74800F0F5
:100E0C00A6FF00224FF40061C44800F0A0FF0022AE
:100E1C004FF48051C14800F09AFF01224FF4005169
:100E2C00BE4800F094FFA5E101228021BB4800F0F0
:100E3C008EFF01224FF48061B84800F088FF012238
:100E4C004FF40061B54800F082FF01224FF480514D
:100E5C00B24800F07CFF01224FF40051AF4800F083
:100E6C0076FF00224FF48071AC4800F070FF002236
:100E7C004FF40071A94800F06AFF7BE101224FF4A6
:100E8C000071A64800F063FF01224FF48051A34883
:100E9C0000F05DFF00228021A04800F058FF0022E6
:100EAC004FF480719D4800F052FF00224FF4806196
:100EBC009A4800F04CFF00224FF40061974800F074
:100ECC0046FF00224FF40051944800F040FF51E1DE
:100EDC0001224FF40061914800F039FF01224FF4D8
:100EEC0080518E4800F033FF00224FF400718B4884
:100EFC0000F02DFF00228021884800F028FF0022FE
:100F0C004FF48071854800F022FF00224FF480617D
:100F1C00824800F01CFF00224FF400517F4800F083
:100F2C0016FF27E100224FF480517C4800F00FFFA0
:100F3C0000224FF40051794800F009FF00224FF4D1
:100F4C008071764800F003FF00224FF40071734863
:100F5C0000F0FDFE01228021704800F0F8FE012215
:100F6C004FF480616D4800F0F2FE01224FF40061F5
:100F7C006A4800F0ECFEFDE000228021674800F09A
:100F8C00E6FE00224FF48061644800F0E0FE00228F
:100F9C004FF48051614800F0DAFE00224FF400510A
:100FAC005E4800F0D4FE00224FF400715B4800F064
:100FBC00CEFE01224FF48071584800F0C8FE012289
:100FCC004FF40061554800F0C2FED3E000224FF40C
:100FDC000061524800F0BBFE002280214F4800F017
:100FEC00B6FE00224FF480614C4800F0B0FE0022A7
:100FFC004FF48051494800F0AAFE00224FF40051F2
:10100C00464800F0A4FE00224FF40071434800F063
:10101C009EFE01224FF48071404800F098FEA9E03A
:10102C0001224FF400613D4800F091FE01224FF483
:10103C0080513A4800F08BFE01224FF48061374812
:10104C0000F085FE01224FF40051344800F07FFE81
:10105C0000224FF48071314800F079FE002280218B
:10106C002E4800F074FE00224FF400712B4800F063
:10107C006EFE7FE000224FF40061284800F067FE0E
:10108C0000224FF48051254800F061FE00224FF4FD
:10109C008061224800F05BFE00224FF400511F4893
:1010AC0000F055FE002280211C4800F050FE00226A
:1010BC004FF48071194800F04AFE00224FF4007181
:1010CC00164800F044FE55E001224FF4006113482D
:1010DC0000F03DFE00228021104800F038FE002276
:1010EC004FF480710D4800F032FE00224FF4007175
:1010FC000A4800F02CFE00224FF48061074800F0F3
:10110C0026FE00224FF40051044800F020FE00227D
:10111C004FF48051014800F01AFE2BE0000C014006
:10112C0001228021154800F012FE01224FF480713B
:10113C00124800F00CFE01224FF400710F4800F031
:10114C0006FE01224FF480610C4800F000FE0122E3
:10115C004FF40061094800F0FAFD01224FF4805170
:10116C00064800F0F4FD01224FF40051034800F052
:10117C00EEFD00BF00BF0837BD4680BD000C01402E
:10118C0080B500AF00F0E0FA00F016F800F09CF823
:10119C0000F04EF8064801F039FA064B01221A60AD
:1011AC00FFF778FAFFF7A6F8FFF790FB00BFF7E719
:1011BC0024010020FC00002080B590B000AF07F1A6
:1011CC00180328220021184601F0ACFD3B1D00221B
:1011DC001A605A609A60DA601A610223BB610123BB
:1011EC00BB621023FB6200237B6307F118031846D4
:1011FC0000F0DEFD0346002B01D000F0D3F80F23E6
:10120C007B600023BB600023FB6000233B61002359
:10121C007B613B1D0021184601F04CF80346002B66
:10122C0001D000F0BFF800BF4037BD4680BD0000C4
:10123C0080B586B000AF07F1080300221A605A602F
:10124C009A60DA603B4600221A605A601D4B4FF0E0
:10125C0080421A601B4B41F63F725A60194B0022B8
:10126C009A60184B0922DA60164B00221A61154B52
:10127C0000229A61134801F079F90346002B01D042
:10128C0000F090F84FF48053BB6007F10803194647
:10129C000C4801F0F7FA0346002B01D000F082F85D
:1012AC0000233B6000237B603B461946054801F058
:1012BC00CFFC0346002B01D000F074F800BF1837A8
:1012CC00BD4680BD2401002080B586B000AF07F17B
:1012DC00080300221A605A609A60DA60284B9B69F6
:1012EC00274A43F004039361254B9B6903F00403E5
:1012FC007B607B68224B9B69214A43F00803936116
:10130C001F4B9B6903F008033B603B6800224FF6C0
:10131C00F0711C4800F01BFD002243F6FF711A48C7
:10132C0000F015FD0E23BB600023FB6000233B6126
:10133C0007F108031946134800F076FB4FF6F073DB
:10134C00BB600123FB6000233B6102237B6107F13F
:10135C00080319460B4800F067FB43F6FF73BB60AC
:10136C000123FB6000233B6102237B6107F108032F
:10137C001946054800F058FB00BF1837BD4680BD24
:10138C000010024000080140000C014080B582B002
:10139C0000AF7860FEF704FF00F0CEF800BF08370E
:1013AC00BD4680BD80B400AF72B600BF00BFFDE784
:1013BC0080B485B000AF154B9B69144A43F0010310
:1013CC009361124B9B6903F00103BB60BB680F4B2D
:1013DC00DB690E4A43F08053D3610C4BDB6903F09D
:1013EC0080537B607B680A4B5B68FB60FB6823F077
:1013FC00E063FB60FB6843F08063FB60044AFB68BE
:10140C00536000BF1437BD4680BC704700100240CB
:10141C000000014080B584B000AF78607B681B6829
:10142C00B3F1804F13D10C4BDB690B4A43F0010332
:10143C00D361094BDB6903F00103FB60FB680022FD
:10144C0000211C2000F0B9FA1C2000F0D2FA00BFD9
:10145C001037BD4680BD00BF0010024080B400AF05
:10146C0000BFFDE780B400AF00BFFDE780B400AF64
:10147C0000BFFDE780B400AF00BFFDE780B400AF54
:10148C0000BFFDE780B400AF00BFBD4680BC704715
:10149C0080B400AF00BFBD4680BC704780B400AFC5
:1014AC0000BFBD4680BC704780B500AF00F092F91C
:1014BC0000BF80BD80B500AF024801F0F3F800BF5B
:1014CC0080BD00BF2401002080B400AF00BFBD462A
:1014DC0080BC704780B483B000AF78603960074936
:1014EC007B683A6841F82320054A7B68002142F862
:1014FC00231000BF0C37BD4680BC70476C01002028
:10150C009401002080B483B000AF7860094A7B68F6
:10151C0052F82330012B06D1064A7B68002142F891
:10152C002310012300E0002318460C37BD4680BC75
:10153C00704700BF9401002080B483B000AF00233B
:10154C007B601CE0124A7B6852F82330002B13DDC1
:10155C000F4A7B6852F823305A1E0D497B6841F8BC
:10156C0023200B4A7B6852F82330002B04DC094AF9
:10157C007B68012142F823107B6801337B607B6818
:10158C00092BDFDD00BF00BF0C37BD4680BC7047A8
:10159C006C0100209401002080B500AF0022402196
:1015AC00104800F0D4FB00224FF480710D4800F07D
:1015BC00CEFB002280210B4800F0C9FB00224FF427
:1015CC000071084800F0C3FB00224FF4806105480D
:1015DC0000F0BDFB00224FF40061024800F0B7FBA5
:1015EC0000BF80BD0008014080B500AF0122402142
:1015FC00074800F0ACFB00224FF48071044800F067
:10160C00A6FB00228021024800F0A1FB00BF80BD98
:10161C000008014080B500AF00224021074800F0CF
:10162C0096FB01224FF48071044800F090FB0022DD
:10163C008021024800F08BFB00BF80BD00080140F8
:10164C0080B500AF00224021074800F080FB00224B
:10165C004FF48071044800F07AFB0122802102488B
:10166C0000F075FB00BF80BD0008014080B500AFE5
:10167C0001224FF40071084800F069FB00224FF47E
:10168C000061054800F063FB00224FF480610248C2
:10169C0000F05DFB00BF80BD0008014080B500AFCD
:1016AC0000224FF40071084800F051FB01224FF466
:1016BC000061054800F04BFB00224FF480610248AA
:1016CC0000F045FB00BF80BD0008014080B500AFB5
:1016DC0000224FF40071084800F039FB00224FF44F
:1016EC000061054800F033FB01224FF48061024891
:1016FC0000F02DFB00BF80BD00080140FFF7E4FEA9
:10170C000B480C490C4A002302E0D458C450043353
:10171C00C4188C42F9D3094A094C002301E0136028
:10172C000432A242FBD301F005FBFFF729FD704701
:10173C000000002018000020CC2D0008180000200C
:10174C00C0010020FEE7000080B500AF084B1B680D
:10175C00074A43F010031360032000F023F90F2015
:10176C0000F008F8FFF724FE0023184680BD00BFE8
:10177C000020024080B582B000AF7860124B1A682E
:10178C00124B1B7819464FF47A73B3FBF1F3B2FB8F
:10179C00F3F3184600F03BF90346002B01D001236C
:1017AC000EE07B680F2B0AD8002279684FF0FF30CF
:1017BC0000F003F9064A7B681360002300E0012364
:1017CC0018460837BD4680BD0C00002014000020D0
:1017DC001000002080B400AF054B1B781A46054B57
:1017EC001B681344034A136000BFBD4680BC70479E
:1017FC0014000020BC01002080B400AF024B1B6819
:10180C001846BD4680BC7047BC01002080B485B032
:10181C0000AF78607B6803F00703FB600C4BDB6860
:10182C00BB60BA684FF6FF031340BB60FB681A023B
:10183C00BB68134343F0BF6343F40033BB60044AFB
:10184C00BB68D36000BF1437BD4680BC704700BF77
:10185C0000ED00E080B400AF044BDB681B0A03F022
:10186C0007031846BD4680BC704700BF00ED00E082
:10187C0080B483B000AF0346FB7197F90730002B9F
:10188C000BDBFB7903F01F02064997F907305B0964
:10189C00012000FA02F241F8232000BF0C37BD46AC
:1018AC0080BC704700E100E080B483B000AF034619
:1018BC003960FB7197F90730002B0ADB3B68DAB211
:1018CC000C4997F907301201D2B20B4483F800236C
:1018DC000AE03B68DAB20849FB7903F00F03043BDA
:1018EC001201D2B20B441A7600BF0C37BD4680BC35
:1018FC00704700BF00E100E000ED00E080B489B06B
:10190C0000AFF860B9607A60FB6803F00703FB6115
:10191C00FB69C3F10703042B28BF0423BB61FB69DC
:10192C000433062B02D9FB69033B00E000237B61E7
:10193C004FF0FF32BB6902FA03F3DA43BB681A407B
:10194C007B699A404FF0FF317B6901FA03F3D9436D
:10195C007B680B40134318462437BD4680BC704748
:10196C0080B582B000AF78607B68013BB3F1807FBB
:10197C0001D301230FE00A4A7B68013B53600F211E
:10198C004FF0FF30FFF790FF054B00229A60044B9D
:10199C0007221A60002318460837BD4680BD00BFD9
:1019AC0010E000E080B582B000AF78607868FFF797
:1019BC002DFF00BF0837BD4680BD80B586B000AF97
:1019CC000346B9607A60FB7300237B61FFF742FF2B
:1019DC0078617A68B9687869FFF790FF024697F9E1
:1019EC000F3011461846FFF75FFF00BF1837BD4692
:1019FC0080BD80B582B000AF0346FB7197F907300C
:101A0C001846FFF735FF00BF0837BD4680BD80B5CF
:101A1C0082B000AF78607868FFF7A2FF03461846E3
:101A2C000837BD4680BD000080B48BB000AF786035
:101A3C00396000237B6200233B6261E101227B6AF7
:101A4C0002FA03F3FB613B681B68FA691340BB6144
:101A5C00BA69FB699A4240F050813B685B68974ACF
:101A6C0093425ED0954A934275D8954A934258D08A
:101A7C00934A93426FD8934A934252D0914A9342DD
:101A8C0069D8914A93424CD08F4A934263D88F4A7B
:101A9C00934246D08D4A93425DD8122B2AD8122BF2
:101AAC0059D801A252F823F02F1B0008091B00087B
:101ABC001B1B00085D1B0008631B0008631B000850
:101ACC00631B0008631B0008631B0008631B0008F2
:101ADC00631B0008631B0008631B0008631B0008E2
:101AEC00631B0008631B0008631B0008111B000824
:101AFC00251B0008764A934213D02CE03B68DB6828
:101B0C003B6229E03B68DB6804333B6224E03B68C2
:101B1C00DB6808333B621FE03B68DB680C333B62DD
:101B2C001AE03B689B68002B02D104233B6213E054
:101B3C003B689B68012B05D108233B627B68FA69E3
:101B4C001A6109E008233B627B68FA695A6103E079
:101B5C0000233B6200E000BFBB69FF2B01D87B6810
:101B6C0001E07B6804337B61BB69FF2B02D87B6A85
:101B7C009B0002E07B6A083B9B003B617B691A6817
:101B8C000F213B6901FA03F3DB431A40396A3B69C5
:101B9C0001FA03F31A437B691A603B685B6803F034
:101BAC008053002B00F0A9804A4B9B69494A43F0B3
:101BBC0001039361474B9B6903F00103BB60BB6856
:101BCC00454A7B6A9B08023352F82330FB607B6AE0
:101BDC0003F003039B000F2202FA03F3DB43FA68C2
:101BEC001340FB607B683D4A93420DD07B683C4AB6
:101BFC00934207D07B683B4A934201D1022304E015
:101C0C00032302E0012300E000237A6A02F00302BE
:101C1C0092009340FA681343FB602F497B6A9B0840
:101C2C000233FA6841F823203B685B6803F48013A5
:101C3C00002B06D02C4B9A682B49BB6913438B6045
:101C4C0006E0294B9A68BB69DB43274913408B603C
:101C5C003B685B6803F40013002B06D0224BDA6858
:101C6C002149BB691343CB6006E01F4BDA68BB69A3
:101C7C00DB431D491340CB603B685B6803F40033C6
:101C8C00002B06D0184B5A681749BB6913434B609D
:101C9C0006E0154B5A68BB69DB43134913404B6094
:101CAC003B685B6803F48033002B1FD00E4B1A6823
:101CBC000D49BB6913430B601FE000BF00003210DD
:101CCC000000311000002210000021100000121042
:101CDC0000001110001002400000014000080140FB
:101CEC00000C014000100140000401400B4B1A682D
:101CFC00BB69DB43094913400B607B6A01337B6290
:101D0C003B681A687B6A22FA03F3002B7FF496AEC9
:101D1C0000BF00BF2C37BD4680BC7047000401409B
:101D2C0080B485B000AF78600B467B807B689A6886
:101D3C007B881340002B02D00123FB7301E00023AE
:101D4C00FB73FB7B18461437BD4680BC704780B4D0
:101D5C0083B000AF78600B467B8013467B707B783A
:101D6C00002B03D07A887B681A6103E07B881A0405
:101D7C007B681A6100BF0C37BD4680BC704780B4CD
:101D8C0085B000AF78600B467B807B68DB68FB60BE
:101D9C007A88FB6813401A04FB68D9437B880B4094
:101DAC001A437B681A6100BF1437BD4680BC70476C
:101DBC0080B586B000AF78607B68002B01D1012321
:101DCC0072E27B681B6803F00103002B00F0878034
:101DDC00924B5B6803F00C03042B0CD08F4B5B68AD
:101DEC0003F00C03082B12D18C4B5B6803F480338B
:101DFC00B3F5803F0BD1894B1B6803F40033002BE8
:101E0C006CD07B685B68002B68D101234CE27B684B
:101E1C005B68B3F5803F06D1804B1B687F4A43F467
:101E2C00803313602EE07B685B68002B0CD17B4BFE
:101E3C001B687A4A23F480331360784B1B68774A0B
:101E4C0023F4802313601DE07B685B68B3F5A02F3F
:101E5C000CD1724B1B68714A43F4802313606F4B97
:101E6C001B686E4A43F4803313600BE06B4B1B68AA
:101E7C006A4A23F480331360684B1B68674A23F467
:101E8C00802313607B685B68002B13D0FFF7B4FCD6
:101E9C00386108E0FFF7B0FC02463B69D31A642BAB
:101EAC0001D9032300E25D4B1B6803F40033002BC4
:101EBC00F0D014E0FFF7A0FC386108E0FFF79CFCC1
:101ECC0002463B69D31A642B01D90323ECE1534B33
:101EDC001B6803F40033002BF0D100E000BF7B68DB
:101EEC001B6803F00203002B63D04C4B5B6803F0C0
:101EFC000C03002B0BD0494B5B6803F00C03082B35
:101F0C001CD1464B5B6803F48033002B16D1434B3A
:101F1C001B6803F00203002B05D07B681B69012BA7
:101F2C0001D00123C0E13D4B1B6823F0F8027B6814
:101F3C005B69DB00394913430B603AE07B681B6932
:101F4C00002B20D0364B01221A60FFF755FC38616C
:101F5C0008E0FFF751FC02463B69D31A022B01D96A
:101F6C000323A1E12D4B1B6803F00203002BF0D0DF
:101F7C002A4B1B6823F0F8027B685B69DB0027495E
:101F8C0013430B6015E0264B00221A60FFF734FC5C
:101F9C00386108E0FFF730FC02463B69D31A022B8C
:101FAC0001D9032380E11D4B1B6803F00203002BB6
:101FBC00F0D17B681B6803F00803002B3AD07B68D8
:101FCC009B69002B19D0174B01221A60FFF714FCE8
:101FDC00386108E0FFF710FC02463B69D31A022B6C
:101FEC0001D9032360E10D4B5B6A03F00203002B64
:101FFC00F0D0012000F09CFA1CE00A4B00221A6081
:10200C00FFF7FAFB38610FE0FFF7F6FB02463B697E
:10201C00D31A022B08D9032346E100BF001002405B
:10202C000000424280044242924B5B6A03F002037E
:10203C00002BE9D17B681B6803F00403002B00F034
:10204C00A6800023FB758B4BDB6903F08053002BC0
:10205C000DD1884BDB69874A43F08053D361854BA4
:10206C00DB6903F08053BB60BB680123FB75824BBB
:10207C001B6803F48073002B18D17F4B1B687E4ABE
:10208C0043F480731360FFF7B7FB386108E0FFF788
:10209C00B3FB02463B69D31A642B01D9032303E13A
:1020AC00754B1B6803F48073002BF0D07B68DB68E6
:1020BC00012B06D16F4B1B6A6E4A43F0010313626E
:1020CC002DE07B68DB68002B0CD16A4B1B6A694ADC
:1020DC0023F001031362674B1B6A664A23F0040367
:1020EC0013621CE07B68DB68052B0CD1614B1B6A0F
:1020FC00604A43F0040313625E4B1B6A5D4A43F073
:10210C00010313620BE05B4B1B6A5A4A23F0010379
:10211C001362584B1B6A574A23F0040313627B6803
:10212C00DB68002B15D0FFF767FB38610AE0FFF77F
:10213C0063FB02463B69D31A41F28832934201D9C0
:10214C000323B1E04B4B1B6A03F00203002BEED0D0
:10215C0014E0FFF751FB38610AE0FFF74DFB024634
:10216C003B69D31A41F28832934201D903239BE095
:10217C00404B1B6A03F00203002BEED1FB7D012BBD
:10218C0005D13C4BDB693B4A23F08053D3617B6820
:10219C00DB69002B00F08780364B5B6803F00C0387
:1021AC00082B61D07B68DB69022B46D1334B0022B4
:1021BC001A60FFF721FB386108E0FFF71DFB0246B0
:1021CC003B69D31A022B01D903236DE0294B1B6801
:1021DC0003F00073002BF0D17B681B6AB3F5803FD2
:1021EC0008D1244B5B6823F400327B689B6821493F
:1021FC0013434B601F4B5B6823F474127B68196AA2
:10220C007B685B6A0B431B4913434B601B4B0122DE
:10221C001A60FFF7F1FA386108E0FFF7EDFA0246B1
:10222C003B69D31A022B01D903233DE0114B1B68E8
:10223C0003F00073002BF0D035E0104B00221A6035
:10224C00FFF7DAFA386108E0FFF7D6FA02463B6985
:10225C00D31A022B01D9032326E0064B1B6803F08B
:10226C000073002BF0D11EE07B68DB69012B07D1DA
:10227C00012319E00010024000700040600042424F
:10228C000B4B5B68FB60FB6803F480327B681B6A5A
:10229C009A4206D1FB6803F470127B685B6A9A421F
:1022AC0001D0012300E0002318461837BD4680BD3D
:1022BC000010024080B584B000AF786039607B6854
:1022CC00002B01D10123D0E06A4B1B6803F00703FC
:1022DC003A689A4210D9674B1B6823F0070265498C
:1022EC003B6813430B60634B1B6803F007033A68AE
:1022FC009A4201D00123B8E07B681B6803F002030B
:10230C00002B20D07B681B6803F00403002B05D046
:10231C00594B5B68584A43F4E06353607B681B6815
:10232C0003F00803002B05D0534B5B68524A43F46F
:10233C0060535360504B5B6823F0F0027B689B68E2
:10234C004D4913434B607B681B6803F00103002B62
:10235C0040D07B685B68012B07D1474B1B6803F4AB
:10236C000033002B15D101237FE07B685B68022BC7
:10237C0007D1414B1B6803F00073002B09D10123DB
:10238C0073E03D4B1B6803F00203002B01D10123CA
:10239C006BE0394B5B6823F003027B685B68364962
:1023AC0013434B60FFF728FAF8600AE0FFF724FAB2
:1023BC000246FB68D31A41F28832934201D90323B7
:1023CC0053E02D4B5B6803F00C027B685B689B0051
:1023DC009A42EBD1274B1B6803F007033A689A42E9
:1023EC0010D2244B1B6823F0070222493B6813438D
:1023FC000B60204B1B6803F007033A689A4201D02C
:10240C00012332E07B681B6803F00403002B08D027
:10241C00194B5B6823F4E0627B68DB681649134355
:10242C004B607B681B6803F00803002B09D0124B30
:10243C005B6823F460527B681B69DB000E49134315
:10244C004B6000F021F802460B4B5B681B0903F054
:10245C000F030A49CB5C22FA03F3094A1360094BB8
:10246C001B681846FFF786F9002318461037BD463F
:10247C0080BD00BF0020024000100240A02D0008CB
:10248C000C0000201000002080B487B000AF0023A7
:10249C00FB600023BB6000237B6100237B60002377
:1024AC003B611E4B5B68FB60FB6803F00C03042B69
:1024BC0002D0082B03D027E0194B3B6127E0FB68C7
:1024CC009B0C03F00F03174AD35C7B60FB6803F48F
:1024DC008033002B10D0114B5B685B0C03F00103B5
:1024EC00114AD35CBB607B680D4A03FB02F2BB68EC
:1024FC00B2FBF3F37B6104E07B680C4A02FB03F351
:10250C007B617B693B6102E0054B3B6100BF3B6932
:10251C0018461C37BD4680BC704700BF00100240F7
:10252C0000127A00B02D0008C02D000800093D00F3
:10253C0080B485B000AF78600A4B1B680A4AA2FBD6
:10254C0003235B0A7A6802FB03F3FB6000BFFB68A2
:10255C005A1EFA60002BF9D100BF00BF1437BD46DC
:10256C0080BC70470C000020D34D621080B582B047
:10257C0000AF78607B68002B01D1012341E07B68C0
:10258C0093F83D30DBB2002B06D17B68002283F838
:10259C003C207868FEF73EFF7B68022283F83D20E2
:1025AC007B681A687B6804331946104600F056FAAB
:1025BC007B68012283F846207B68012283F83E2049
:1025CC007B68012283F83F207B68012283F840203E
:1025DC007B68012283F841207B68012283F842202A
:1025EC007B68012283F843207B68012283F8442016
:1025FC007B68012283F845207B68012283F83D200B
:10260C00002318460837BD4680BD000080B485B055
:10261C0000AF78607B6893F83D30DBB2012B01D0C2
:10262C00012335E07B68022283F83D207B681B6820
:10263C00DA687B681B6842F00102DA607B681B6811
:10264C00164A934209D07B681B68B3F1804F04D0C3
:10265C007B681B68124A934211D17B681B689B688C
:10266C0003F00703FB60FB68062B10D07B681B682C
:10267C001A687B681B6842F001021A6007E07B68ED
:10268C001B681A687B681B6842F001021A60002301
:10269C0018461437BD4680BC704700BF002C014063
:1026AC000004004080B584B000AF78607B681B6884
:1026BC00DB68FB607B681B681B69BB60BB6803F055
:1026CC000203002B20D0FB6803F00203002B1BD06D
:1026DC007B681B686FF002021A617B6801221A7713
:1026EC007B681B689B6903F00303002B03D078689D
:1026FC0000F098F905E0786800F08BF9786800F044
:10270C009AF97B6800221A77BB6803F00403002B4C
:10271C0020D0FB6803F00403002B1BD07B681B68E4
:10272C006FF004021A617B6802221A777B681B68BF
:10273C009B6903F44073002B03D0786800F072F9A6
:10274C0005E0786800F065F9786800F074F97B684A
:10275C0000221A77BB6803F00803002B20D0FB681B
:10276C0003F00803002B1BD07B681B686FF008027A
:10277C001A617B6804221A777B681B68DB6903F09B
:10278C000303002B03D0786800F04CF905E078685F
:10279C0000F03FF9786800F04EF97B6800221A7758
:1027AC00BB6803F01003002B20D0FB6803F0100370
:1027BC00002B1BD07B681B686FF010021A617B68C2
:1027CC0008221A777B681B68DB6903F44073002BC3
:1027DC0003D0786800F026F905E0786800F019F964
:1027EC00786800F028F97B6800221A77BB6803F040
:1027FC000103002B0CD0FB6803F00103002B07D066
:10280C007B681B686FF001021A617868FEF7BEFDE9
:10281C00BB6803F08003002B0CD0FB6803F0800333
:10282C00002B07D07B681B686FF080021A617868F8
:10283C0000F06FFABB6803F04003002B0CD0FB6870
:10284C0003F04003002B07D07B681B686FF040023D
:10285C001A61786800F0F8F8BB6803F02003002BCD
:10286C000CD0FB6803F02003002B07D07B681B689F
:10287C006FF020021A61786800F042FA00BF10373E
:10288C00BD4680BD80B584B000AF78603960002350
:10289C00FB737B6893F83C30012B01D10223B4E02D
:1028AC007B68012283F83C207B68022283F83D2060
:1028BC007B681B689B68BB60BB6823F07703BB60BD
:1028CC00BB6823F47F43BB607B681B68BA689A6063
:1028DC003B681B68B3F5005F3ED0B3F5005F00F2B8
:1028EC008780B3F5805F00F08680B3F5805F7FD87A
:1028FC00702B1AD0702B7BD8602B50D0602B77D8D4
:10290C00502B3CD0502B73D8402B58D0402B6FD829
:10291C00302B64D0302B6BD8202B60D0202B67D879
:10292C00002B5CD0102B5AD062E07B6818683B6897
:10293C0099683B685A683B68DB6800F06AF97B6809
:10294C001B689B68BB60BB6843F07703BB607B680C
:10295C001B68BA689A604FE07B6818683B68996896
:10296C003B685A683B68DB6800F053F97B681B686E
:10297C009A687B681B6842F480429A603CE07B68F2
:10298C0018683B6859683B68DB681A4600F0CAF85F
:10299C007B681B685021184600F021F92CE07B68FD
:1029AC0018683B6859683B68DB681A4600F0E8F821
:1029BC007B681B686021184600F011F91CE07B68ED
:1029CC0018683B6859683B68DB681A4600F0AAF83F
:1029DC007B681B684021184600F001F90CE07B680D
:1029EC001A683B681B681946104600F0F8F803E0BB
:1029FC000123FB7300E000BF7B68012283F83D20BC
:102A0C007B68002283F83C20FB7B18461037BD46C0
:102A1C0080BD80B483B000AF786000BF0C37BD467A
:102A2C0080BC704780B483B000AF786000BF0C37B7
:102A3C00BD4680BC704780B483B000AF786000BFE7
:102A4C000C37BD4680BC704780B483B000AF786053
:102A5C0000BF0C37BD4680BC7047000080B485B009
:102A6C0000AF786039607B681B68FB607B682B4A21
:102A7C00934207D07B68B3F1804F03D07B68284A20
:102A8C00934208D1FB6823F07003FB603B685B68E2
:102A9C00FA681343FB607B68204A934207D07B683B
:102AAC00B3F1804F03D07B681D4A934208D1FB6879
:102ABC0023F44073FB603B68DB68FA681343FB60EC
:102ACC00FB6823F080023B685B691343FB607B6807
:102ADC00FA681A603B689A687B68DA623B681A6825
:102AEC007B689A627B680D4A934203D13B681A69F2
:102AFC007B681A637B6801225A617B681B6903F04F
:102B0C000103002B05D07B681B6923F001027B6855
:102B1C001A6100BF1437BD4680BC7047002C0140C1
:102B2C000004004080B487B000AFF860B9607A60F0
:102B3C00FB681B6A7B61FB681B6A23F00102FB6864
:102B4C001A62FB689B693B613B6923F0F0033B61B4
:102B5C007B681B013A6913433B617B6923F00A03D1
:102B6C007B617A69BB6813437B61FB683A699A6144
:102B7C00FB687A691A6200BF1C37BD4680BC70477F
:102B8C0080B487B000AFF860B9607A60FB681B6AEC
:102B9C007B61FB681B6A23F01002FB681A62FB68FE
:102BAC009B693B613B6923F470433B617B681B036E
:102BBC003A6913433B617B6923F0A0037B61BB68DB
:102BCC001B017A6913437B61FB683A699A61FB6864
:102BDC007A691A6200BF1C37BD4680BC704780B44E
:102BEC0085B000AF786039607B689B68FB60FB68E0
:102BFC0023F07003FB603A68FB68134343F0070350
:102C0C00FB607B68FA689A6000BF1437BD4680BCD5
:102C1C00704780B487B000AFF860B9607A603B60F1
:102C2C00FB689B687B617B6923F47F437B613B681A
:102C3C001A027B681A43BB6813437A6913437B619E
:102C4C00FB687A699A6000BF1C37BD4680BC704730
:102C5C0080B485B000AF786039607B6893F83C3005
:102C6C00012B01D1022341E07B68012283F83C2037
:102C7C007B68022283F83D207B681B685B68FB60E5
:102C8C007B681B689B68BB60FB6823F07003FB6070
:102C9C003B681B68FA681343FB607B681B68FA6827
:102CAC005A607B681B68144A934209D07B681B6886
:102CBC00B3F1804F04D07B681B68104A93420CD14F
:102CCC00BB6823F08003BB603B685B68BA68134346
:102CDC00BB607B681B68BA689A607B68012283F8CA
:102CEC003D207B68002283F83C20002318461437D3
:102CFC00BD4680BC704700BF002C01400004004062
:102D0C0080B483B000AF786000BF0C37BD4680BC88
:102D1C00704780B483B000AF786000BF0C37BD46FD
:102D2C0080BC704703460244934200D1704703F8BD
:102D3C00011BF9E770B500260C4D0D4C641BA4105B
:102D4C00A64209D100F01AF800260A4D0A4C641B61
:102D5C00A410A64205D170BD55F8043B9847013626
:102D6C00EEE755F8043B98470136F2E7C42D00080E
:102D7C00C42D0008C42D0008C82D0008F8B500BFEC
:102D8C00F8BC08BC9E467047F8B500BFF8BC08BC40
:042D9C009E46704798
:102DA00000000000000000000102030406070809FB
:102DB00002030405060708090A0B0C0D0E0F10107C
:042DC000010200000C
:042DC40031010008D1
:042DC8000D010008F1
:102DCC0005000000020000000300000000127A0061
:082DDC001000000001000000DE
:0400000508001709CF
:00000001FF
