:020000040800F2
:1000000000280020691600081914000821140008AF
:1000100029140008311400083914000800000000F9
:100020000000000000000000000000004114000873
:100030004D14000800000000591400086514000861
:10004000B1160008B1160008B1160008B116000874
:10005000B1160008B1160008B1160008B116000864
:10006000B1160008B1160008B1160008B116000854
:10007000B1160008B1160008B1160008B116000844
:10008000B1160008B1160008B1160008B116000834
:10009000B1160008B1160008B1160008B116000824
:1000A000B1160008B1160008B1160008B116000814
:1000B00071140008B116000800000000B116000815
:1000C000B11600080000000000000000B116000892
:1000D00000000000B1160008B11600080000000082
:1000E000B1160008B1160008B116000800000000A3
:1000F0000000000000000000000000000000000000
:0C01000000000000000000005FF808F1A3
:10010C0010B5054C237833B9044B13B10448AFF345
:10011C0000800123237010BD180000200000000097
:10012C00E82C000808B5034B1BB103490348AFF397
:10013C00008008BD000000001C000020E82C000816
:10014C0080B483B000AF7860094A7B6852F82330E2
:10015C00012B06D1064A7B68002142F823100123AB
:10016C0000E0002318460C37BD4680BC704700BF2A
:10017C00D400002080B582B000AF7860064A7B685E
:10018C00012142F823101021044801F0A8FD00BF02
:10019C000837BD4680BD00BFD400002000080140D8
:1001AC0080B582B000AF364B1B68364A1360364BB5
:1001BC001B68334A13600221344801F061FD034689
:1001CC001A46314B1A602E4B5B682E4A53602E4BED
:1001DC005B682B4A536004212C4801F051FD034607
:1001EC001A46294B5A60264B9B68264A9360264B2D
:1001FC009B68234A93600821244801F041FD034683
:10020C001A46214B9A6000237B6031E01D4A7B68C3
:10021C0052F823201A497B6851F823309A4224D192
:10022C00174A7B6852F8232017497B6851F8233012
:10023C009A421AD1164A7B6852F8232012497B68DD
:10024C0051F823309A4210D00F4A7B6852F8232081
:10025C000F497B6841F823200B4A7B6852F8233006
:10026C00012B02D17868FFF785FF7B6801337B6037
:10027C007B68092BCADD00BF00BF0837BD4680BDB7
:10028C005C000020340000208400002000080140A5
:10029C00AC00002080B582B000AF7860396039685E
:1002AC00786800F0F3FA114B1B685A1C0F490A606E
:1002BC00002B03F00103B8BF5B42184600F05AFB59
:1002CC000B4B1B685A1C0A490A60002B03F00103F4
:1002DC00B8BF5B42184600F015FB1921032001F052
:1002EC00D1F800BF0837BD4680BD00BF100100200B
:1002FC000C01002080B500AF002001F0DBF80346B4
:10030C00012B07D120219F4801F0E9FC642100203A
:10031C0001F0B8F89C4B1B68013B042B00F28F8159
:10032C0001A252F823F000BF49030008A103000802
:10033C0057040008F7040008AD050008934B05228C
:10034C001A60934B02221A60924B03221A608E4B56
:10035C0002221A608F4B1B68013B8F4A13608B4B38
:10036C001B68013B8D4A13606421002001F08AF860
:10037C00884B1B68642202FB03F31946012001F031
:10038C0081F86421022001F07DF80121032001F0A5
:10039C0079F85DE101F0D8F801F030F9032001F0B3
:1003AC0089F80346012B07D17B4B1B687B4A1268EB
:1003BC0011461846FFF76EFF022001F07BF803464A
:1003CC00012B0DD1744B1B68013B734A1360734BAB
:1003DC001B68013B714A13606421022001F052F842
:1003EC00012001F067F80346012B10D1664B032264
:1003FC001A60674B1B68013B674A1360644B1B68B0
:10040C00642202FB03F31946012001F03BF80320A0
:10041C0001F050F80346012B07D15F4B1B685F4A74
:10042C00126811461846FFF735FF0020FFF788FECB
:10043C000346012B40F00581534B0C221A604FF4FC
:10044C007A71012001F01EF8FBE001F0EFF80320B7
:10045C0001F030F80346012B07D14F4B1B684F4A74
:10046C00126811461846FFF715FF022001F022F81A
:10047C000346012B0DD1484B1B68013B464A1360C8
:10048C00464B1B68013B454A13606421022000F077
:10049C00F9FF012001F00EF80346012B15D13A4B60
:1004AC0004221A60394B1B68013B3B4A1360394BE1
:1004BC001B68013B394A1360364B1B68642202FBF4
:1004CC0003F31946012000F0DDFF0020FFF738FE92
:1004DC000346012B40F0B7802B4B0C221A604FF4D3
:1004EC007A71012000F0CEFFADE001F043F801F08D
:1004FC006DF8032000F0DEFF0346012B07D1264BDD
:10050C001B68264A126811461846FFF7C3FE0220E4
:10051C0000F0D0FF0346012B0DD11F4B1B68013B94
:10052C001D4A13601D4B1B68013B1C4A1360642160
:10053C00022000F0A7FF012000F0BCFF0346012BB6
:10054C0010D1114B05221A60114B1B68013B134A49
:10055C0013600F4B1B68642202FB03F31946012046
:10056C0000F090FF0020FFF7EBFD0346012B6CD150
:10057C00054B0C221A604FF47A71012000F082FFB7
:10058C0063E000BF00080140FC00002000000020D8
:10059C0004000020080000200001002004010020BD
:1005AC0000F0FEFF032000F085FF0346012B07D16E
:1005BC00284B1B68284A126811461846FFF76AFE3A
:1005CC00022000F077FF0346012B0DD1214B1B6855
:1005DC00013B204A1360204B1B68013B1E4A1360F1
:1005EC006421022000F04EFF012000F063FF03465F
:1005FC00012B15D1194B02221A60194B1B68013BB8
:10060C00144A1360174B1B68013B134A1360144BBD
:10061C001B68642202FB03F31946012000F032FF31
:10062C000020FFF78DFD0346012B10D10B4B0C2244
:10063C001A604FF47A71012000F024FF07E000BF2C
:10064C0006E000BF04E000BF02E000BF00E000BF16
:10065C0000BF80BD0001002004010020FC00002030
:10066C00080000200000002080B500AF804B1B6804
:10067C000C3B082B00F2F18001A252F823F000BFD2
:10068C00B10600081F070008DB0700086708000810
:10069C006708000867080008670800086708000872
:1006AC003F08000800F050FF00F090FF0020FFF71B
:1006BC0047FD0346012B05D16D4B0E221A606D4B85
:1006CC0000221A60032000F0F5FE0346012B05D131
:1006DC00684B1B6802211846FFF7DCFD0120FFF771
:1006EC002FFD0346012B04D1624B1B680133614A79
:1006FC0013600220FFF724FD0346012B40F0AF806E
:10070C005C4B1B685C4A13605A4B1B685B4A13605A
:10071C00A5E000F02FFF00F071FF032000F0CAFEEF
:10072C000346012B05D1534B1B6804211846FFF7D8
:10073C00B1FD0120FFF704FD0346012B04D14D4B05
:10074C001B6801334B4A13600220FFF7F9FC034688
:10075C00012B07D1474B1B68494A1360454B1B685B
:10076C00464A13600020FFF7EBFC0346012B78D1BF
:10077C00404B00221A60434B1A68414B1B681A44C9
:10078C003D4B1B689A421AD1394B02221A603C4BE2
:10079C001B68013B394A1360374B1B68013B3A4AD3
:1007AC0013606421022000F06DFE354B1B6864223F
:1007BC0002FB03F31946012000F064FE51E02C4BC0
:1007CC0014221A606421042000F05CFE49E000F061
:1007DC00E7FE00F02BFF032000F06CFE0346012B1C
:1007EC0005D1244B1B6803211846FFF753FD00204D
:1007FC00FFF7A6FC0346012B05D11D4B0D221A60F9
:10080C001C4B00221A600120FFF79AFC0346012BB7
:10081C0004D1184B1B680133164A13600220FFF7F2
:10082C008FFC0346012B1ED1124B1B68154A13601B
:10083C0019E0032000F03EFE0346002B03D0632199
:10084C006320FFF727FD042000F034FE0346002B45
:10085C000BD0074B01221A6007E000BF06E000BF77
:10086C0004E000BF02E000BF00E000BF00BF80BD9D
:10087C00FC000020080100200000002000010020E6
:10088C0008000020040000200401002080B483B084
:10089C0000AF786039607B68184A82FB03129210B3
:1008AC00DB17D31A164A13607968144B83FB0123A8
:1008BC009A10CB17D21A13469B0013445B00CA1A2A
:1008CC000F4B5A603B680D4A82FB03129210DB17E8
:1008DC00D31A0B4A93603968084B83FB01239A1097
:1008EC00CB17D21A13469B0013445B00CA1A044B55
:1008FC00DA6000BF0C37BD4680BC70476766666621
:10090C001401002080B582B000AF78607B68002BAA
:10091C0003D07B68012B12D023E000224FF48051CE
:10092C00124801F0C4F901224FF400510F4801F0B4
:10093C00BEF90F4B1B68184600F054F811E000226A
:10094C004FF40051094801F0B2F901224FF48051E3
:10095C00064801F0ACF9064B5B68184600F042F80B
:10096C0000BF00BF0837BD4680BD00BF0008014076
:10097C001401002080B582B000AF78607B68002B3A
:10098C0003D07B68012B12D023E000224FF480416E
:10099C00124801F08CF901224FF400410F4801F08C
:1009AC0086F90F4B9B68184600F0CEF911E0002237
:1009BC004FF40041094801F07AF901224FF48041CB
:1009CC00064801F074F9064BDB68184600F0BCF9D8
:1009DC0000BF00BF0837BD4680BD00BF0008014006
:1009EC001401002080B582B000AF78607B68092BC1
:1009FC0000F2808101A252F823F000BF310A0008F6
:100A0C00790A0008C10A0008090B0008510B0008FC
:100A1C00990B0008E10B0008290C0008710C000868
:100A2C00B90C000800220121C64801F040F900224F
:100A3C000221C44801F03BF900220421C14801F015
:100A4C0036F900220821BF4801F031F900221021AB
:100A5C00BC4801F02CF900222021BA4801F027F9FA
:100A6C0001224021B74801F022F967E1012201215E
:100A7C00B44801F01CF901220821B24801F017F921
:100A8C0001221021AF4801F012F901222021AD48BA
:100A9C0001F00DF901224021AA4801F008F90022C9
:100AAC000221A84801F003F900220421A54801F015
:100ABC00FEF843E101220421A24801F0F8F80122DA
:100ACC002021A04801F0F3F8002201219D4801F0FB
:100ADC00EEF8002202219B4801F0E9F800220821DF
:100AEC00984801F0E4F800221021964801F0DFF854
:100AFC0000224021934801F0DAF81FE10122102175
:100B0C00904801F0D4F8012220218E4801F0CFF852
:100B1C00002204218B4801F0CAF8002201218948E7
:100B2C0001F0C5F800220221864801F0C0F800222D
:100B3C000821844801F0BBF800224021814801F0D3
:100B4C00B6F8FBE0002220217E4801F0B0F800222C
:100B5C0040217C4801F0ABF800220221794801F0D9
:100B6C00A6F800220421774801F0A1F80122012106
:100B7C00744801F09CF801220821724801F097F8A2
:100B8C00012210216F4801F092F8D7E000220121D8
:100B9C006C4801F08CF8002208216A4801F087F8B3
:100BAC0000222021674801F082F80022402165488C
:100BBC0001F07DF800220421624801F078F801224E
:100BCC000221604801F073F8012210215D4801F008
:100BDC006EF8B3E0002210215A4801F068F80022A8
:100BEC000121584801F063F800220821554801F012
:100BFC005EF800222021534801F059F800224021D0
:100C0C00504801F054F8002204214E4801F04FF8EE
:100C1C00012202214B4801F04AF88FE001221021F9
:100C2C00484801F044F801222021464801F03FF8E1
:100C3C0001220821434801F03AF8012240214148A1
:100C4C0001F035F8002202213E4801F030F8002274
:100C5C0001213C4801F02BF800220421394801F015
:100C6C0026F86BE000221021364801F020F8002213
:100C7C002021344801F01BF800220821314801F0F2
:100C8C0016F8002240212F4801F011F80022012112
:100C9C002C4801F00CF8002202212A4801F007F838
:100CAC0000220421274801F002F847E0012210211C
:100CBC00244800F0FCFF00220121224800F0F7FF3D
:100CCC00002202211F4800F0F2FF002204211D48DF
:100CDC0000F0EDFF002208211A4800F0E8FF002286
:100CEC004021184800F0E3FF00222021154800F0B5
:100CFC00DEFF23E001220121124800F0D8FF01227F
:100D0C000221104800F0D3FF012204210D4800F00D
:100D1C00CEFF012208210B4800F0C9FF012210214F
:100D2C00084800F0C4FF01222021064800F0BFFF54
:100D3C0001224021034800F0BAFF00BF00BF083772
:100D4C00BD4680BD000C014080B582B000AF78601C
:100D5C007B68092B00F2BE8101A252F823F000BF80
:100D6C00950D0008E90D00083D0E0008910E0008D5
:100D7C00E50E0008390F00088D0F0008E10F000880
:100D8C00351000088910000800228021D04800F09E
:100D9C008EFF00224FF48071CD4800F088FF0022B6
:100DAC004FF40071CA4800F082FF00224FF48061BA
:100DBC00C74800F07CFF00224FF40061C44800F0EB
:100DCC0076FF00224FF48051C14800F070FF0122E1
:100DDC004FF40051BE4800F06AFFA5E101228021CA
:100DEC00BB4800F064FF01224FF48061B84800F06A
:100DFC005EFF01224FF40061B54800F058FF01225C
:100E0C004FF48051B24800F052FF01224FF40051D0
:100E1C00AF4800F04CFF00224FF48071AC4800F05A
:100E2C0046FF00224FF40071A94800F040FF7BE11F
:100E3C0001224FF40071A64800F039FF01224FF453
:100E4C008051A34800F033FF00228021A04800F01D
:100E5C002EFF00224FF480719D4800F028FF0022E5
:100E6C004FF480619A4800F022FF00224FF4006199
:100E7C00974800F01CFF00224FF40051944800F0FA
:100E8C0016FF51E101224FF40061914800F00FFF71
:100E9C0001224FF480518E4800F009FF00224FF4DC
:100EAC0000718B4800F003FF00228021884800F07D
:100EBC00FEFE00224FF48071854800F0F8FE0022FF
:100ECC004FF48061824800F0F2FE00224FF4005192
:100EDC007F4800F0ECFE27E100224FF480517C4863
:100EEC0000F0E5FE00224FF40051794800F0DFFEDF
:100EFC0000224FF48071764800F0D9FE00224FF4A6
:100F0C000071734800F0D3FE01228021704800F07C
:100F1C00CEFE01224FF480616D4800F0C8FE012224
:100F2C004FF400616A4800F0C2FEFDE0002280210F
:100F3C00674800F0BCFE00224FF48061644800F06A
:100F4C00B6FE00224FF48051614800F0B0FE002242
:100F5C004FF400515E4800F0AAFE00224FF40071DD
:100F6C005B4800F0A4FE01224FF48071584800F059
:100F7C009EFE01224FF40061554800F098FED3E02C
:100F8C0000224FF40061524800F091FE00228021B3
:100F9C004F4800F08CFE00224FF480614C4800F06A
:100FAC0086FE00224FF48051494800F080FE00225A
:100FBC004FF40051464800F07AFE00224FF40071C5
:100FCC00434800F074FE01224FF48071404800F059
:100FDC006EFEA9E001224FF400613D4800F067FE6F
:100FEC0001224FF480513A4800F061FE01224FF487
:100FFC008061374800F05BFE01224FF40051344809
:10100C0000F055FE00224FF48071314800F04FFE85
:10101C00002280212E4800F04AFE00224FF400717D
:10102C002B4800F044FE7FE000224FF4006128487A
:10103C0000F03DFE00224FF48051254800F037FEB1
:10104C0000224FF48061224800F031FE00224FF460
:10105C0000511F4800F02BFE002280211C4800F09C
:10106C0026FE00224FF48071194800F020FE002269
:10107C004FF40071164800F01AFE55E001224FF4AF
:10108C000061134800F013FE00228021104800F08C
:10109C000EFE00224FF480710D4800F008FE002275
:1010AC004FF400710A4800F002FE00224FF48061F8
:1010BC00074800F0FCFD00224FF40051044800F0FA
:1010CC00F6FD00224FF48051014800F0F0FD2BE0BA
:1010DC00000C014001228021154800F0E8FD01229E
:1010EC004FF48071124800F0E2FD01224FF40071C0
:1010FC000F4800F0DCFD01224FF480610C4800F039
:10110C00D6FD01224FF40061094800F0D0FD012208
:10111C004FF48051064800F0CAFD01224FF40051F3
:10112C00034800F0C4FD00BF00BF0837BD4680BDBA
:10113C00000C014080B500AF00F0B6FA00F014F8D6
:10114C0000F09AF800F04CF8054801F00FFA054B46
:10115C0001221A60FFF788FAFFF7CCF800BFF9E715
:10116C0024010020FC00002080B590B000AF07F1F6
:10117C00180328220021184601F084FD3B1D002293
:10118C001A605A609A60DA601A610223BB6101230B
:10119C00BB621023FB6200237B6307F11803184624
:1011AC0000F0B6FD0346002B01D000F0D3F80F235E
:1011BC007B600023BB600023FB6000233B610023AA
:1011CC007B613B1D0021184601F024F80346002BDF
:1011DC0001D000F0BFF800BF4037BD4680BD000015
:1011EC0080B586B000AF07F1080300221A605A6080
:1011FC009A60DA603B4600221A605A601D4B4FF031
:10120C0080421A601B4B41F63F725A60194B002208
:10121C009A60184B0922DA60164B00221A61154BA2
:10122C0000229A61134801F051F90346002B01D0BA
:10123C0000F090F84FF48053BB6007F10803194697
:10124C000C4801F0CFFA0346002B01D000F082F8D5
:10125C0000233B6000237B603B461946054801F0A8
:10126C00A7FC0346002B01D000F074F800BF183720
:10127C00BD4680BD2401002080B586B000AF07F1CB
:10128C00080300221A605A609A60DA60284B9B6946
:10129C00274A43F004039361254B9B6903F0040335
:1012AC007B607B68224B9B69214A43F00803936166
:1012BC001F4B9B6903F008033B603B6800224FF611
:1012CC00F0711C4800F0F3FC002243F6FF711A4841
:1012DC0000F0EDFC0E23BB600023FB6000233B61A0
:1012EC0007F108031946134800F04EFB4FF6F07354
:1012FC00BB600123FB6000233B6102237B6107F190
:10130C00080319460B4800F03FFB43F6FF73BB6024
:10131C000123FB6000233B6102237B6107F108037F
:10132C001946054800F030FB00BF1837BD4680BD9C
:10133C000010024000080140000C014080B582B052
:10134C0000AF7860FEF72CFF00F0CEF800BF083736
:10135C00BD4680BD80B400AF72B600BF00BFFDE7D4
:10136C0080B485B000AF154B9B69144A43F0010360
:10137C009361124B9B6903F00103BB60BB680F4B7D
:10138C00DB690E4A43F08053D3610C4BDB6903F0ED
:10139C0080537B607B680A4B5B68FB60FB6823F0C7
:1013AC00E063FB60FB6843F08063FB60044AFB680E
:1013BC00536000BF1437BD4680BC7047001002401C
:1013CC000000014080B584B000AF78607B681B687A
:1013DC00B3F1804F13D10C4BDB690B4A43F0010383
:1013EC00D361094BDB6903F00103FB60FB6800224E
:1013FC0000211C2000F091FA1C2000F0AAFA00BF7A
:10140C001037BD4680BD00BF0010024080B400AF55
:10141C0000BFFDE780B400AF00BFFDE780B400AFB4
:10142C0000BFFDE780B400AF00BFFDE780B400AFA4
:10143C0000BFFDE780B400AF00BFBD4680BC704765
:10144C0080B400AF00BFBD4680BC704780B400AF15
:10145C0000BFBD4680BC704780B500AF00F06AF994
:10146C0000BF80BD80B500AF024801F0CBF800BFD3
:10147C0080BD00BF2401002080B400AF00BFBD467A
:10148C0080BC704780B483B000AF78603960074986
:10149C007B683A6841F82320054A7B68002142F8B2
:1014AC00231000BF0C37BD4680BC70476C01002078
:1014BC009401002080B483B000AF7860094A7B6847
:1014CC0052F82330012B06D1064A7B68002142F8E2
:1014DC002310012300E0002318460C37BD4680BCC6
:1014EC00704700BF9401002080B483B000AF00238C
:1014FC007B601CE0124A7B6852F82330002B13DD12
:10150C000F4A7B6852F823305A1E0D497B6841F80C
:10151C0023200B4A7B6852F82330002B04DC094A49
:10152C007B68012142F823107B6801337B607B6868
:10153C00092BDFDD00BF00BF0C37BD4680BC7047F8
:10154C006C0100209401002080B500AF01224021E5
:10155C00074800F0ACFB00224FF48071044800F007
:10156C00A6FB00228021024800F0A1FB00BF80BD39
:10157C000008014080B500AF00224021074800F070
:10158C0096FB01224FF48071044800F090FB00227E
:10159C008021024800F08BFB00BF80BD0008014099
:1015AC0080B500AF00224021074800F080FB0022EC
:1015BC004FF48071044800F07AFB0122802102482C
:1015CC0000F075FB00BF80BD0008014080B500AF86
:1015DC0001224FF40071084800F069FB00224FF41F
:1015EC000061054800F063FB00224FF48061024863
:1015FC0000F05DFB00BF80BD0008014080B500AF6E
:10160C0000224FF40071084800F051FB01224FF406
:10161C000061054800F04BFB00224FF4806102484A
:10162C0000F045FB00BF80BD0008014080B500AF55
:10163C0000224FF40071084800F039FB00224FF4EF
:10164C000061054800F033FB01224FF48061024831
:10165C0000F02DFB00BF80BD00080140FFF70CFF20
:10166C000B480C490C4A002302E0D458C4500433F4
:10167C00C4188C42F9D3094A094C002301E01360C9
:10168C000432A242FBD301F005FBFFF753FD704778
:10169C0000000020180000202C2D0008180000204D
:1016AC00C0010020FEE7000080B500AF084B1B68AE
:1016BC00074A43F010031360032000F023F90F20B6
:1016CC0000F008F8FFF74CFE0023184680BD00BF61
:1016DC000020024080B582B000AF7860124B1A68CF
:1016EC00124B1B7819464FF47A73B3FBF1F3B2FB30
:1016FC00F3F3184600F03BF90346002B01D001230D
:10170C000EE07B680F2B0AD8002279684FF0FF306F
:10171C0000F003F9064A7B681360002300E0012304
:10172C0018460837BD4680BD0C0000201400002070
:10173C001000002080B400AF054B1B781A46054BF7
:10174C001B681344034A136000BFBD4680BC70473E
:10175C0014000020BC01002080B400AF024B1B68B9
:10176C001846BD4680BC7047BC01002080B485B0D3
:10177C0000AF78607B6803F00703FB600C4BDB6801
:10178C00BB60BA684FF6FF031340BB60FB681A02DC
:10179C00BB68134343F0BF6343F40033BB60044A9C
:1017AC00BB68D36000BF1437BD4680BC704700BF18
:1017BC0000ED00E080B400AF044BDB681B0A03F0C3
:1017CC0007031846BD4680BC704700BF00ED00E023
:1017DC0080B483B000AF0346FB7197F90730002B40
:1017EC000BDBFB7903F01F02064997F907305B0905
:1017FC00012000FA02F241F8232000BF0C37BD464D
:10180C0080BC704700E100E080B483B000AF0346B9
:10181C003960FB7197F90730002B0ADB3B68DAB2B1
:10182C000C4997F907301201D2B20B4483F800230C
:10183C000AE03B68DAB20849FB7903F00F03043B7A
:10184C001201D2B20B441A7600BF0C37BD4680BCD5
:10185C00704700BF00E100E000ED00E080B489B00B
:10186C0000AFF860B9607A60FB6803F00703FB61B6
:10187C00FB69C3F10703042B28BF0423BB61FB697D
:10188C000433062B02D9FB69033B00E000237B6188
:10189C004FF0FF32BB6902FA03F3DA43BB681A401C
:1018AC007B699A404FF0FF317B6901FA03F3D9430E
:1018BC007B680B40134318462437BD4680BC7047E9
:1018CC0080B582B000AF78607B68013BB3F1807F5C
:1018DC0001D301230FE00A4A7B68013B53600F21BF
:1018EC004FF0FF30FFF790FF054B00229A60044B3E
:1018FC0007221A60002318460837BD4680BD00BF7A
:10190C0010E000E080B582B000AF78607868FFF737
:10191C002DFF00BF0837BD4680BD80B586B000AF37
:10192C000346B9607A60FB7300237B61FFF742FFCB
:10193C0078617A68B9687869FFF790FF024697F981
:10194C000F3011461846FFF75FFF00BF1837BD4632
:10195C0080BD80B582B000AF0346FB7197F90730AC
:10196C001846FFF735FF00BF0837BD4680BD80B570
:10197C0082B000AF78607868FFF7A2FF0346184684
:10198C000837BD4680BD000080B48BB000AF7860D6
:10199C00396000237B6200233B6261E101227B6A98
:1019AC0002FA03F3FB613B681B68FA691340BB61E5
:1019BC00BA69FB699A4240F050813B685B68974A70
:1019CC0093425ED0954A934275D8954A934258D02B
:1019DC00934A93426FD8934A934252D0914A93427E
:1019EC0069D8914A93424CD08F4A934263D88F4A1C
:1019FC00934246D08D4A93425DD8122B2AD8122B93
:101A0C0059D801A252F823F08F1A0008691A00085D
:101A1C007B1A0008BD1A0008C31A0008C31A000874
:101A2C00C31A0008C31A0008C31A0008C31A000816
:101A3C00C31A0008C31A0008C31A0008C31A000806
:101A4C00C31A0008C31A0008C31A0008711A000848
:101A5C00851A0008764A934213D02CE03B68DB6869
:101A6C003B6229E03B68DB6804333B6224E03B6863
:101A7C00DB6808333B621FE03B68DB680C333B627E
:101A8C001AE03B689B68002B02D104233B6213E0F5
:101A9C003B689B68012B05D108233B627B68FA6984
:101AAC001A6109E008233B627B68FA695A6103E01A
:101ABC0000233B6200E000BFBB69FF2B01D87B68B1
:101ACC0001E07B6804337B61BB69FF2B02D87B6A26
:101ADC009B0002E07B6A083B9B003B617B691A68B8
:101AEC000F213B6901FA03F3DB431A40396A3B6966
:101AFC0001FA03F31A437B691A603B685B6803F0D5
:101B0C008053002B00F0A9804A4B9B69494A43F053
:101B1C0001039361474B9B6903F00103BB60BB68F6
:101B2C00454A7B6A9B08023352F82330FB607B6A80
:101B3C0003F003039B000F2202FA03F3DB43FA6862
:101B4C001340FB607B683D4A93420DD07B683C4A56
:101B5C00934207D07B683B4A934201D1022304E0B5
:101B6C00032302E0012300E000237A6A02F003025F
:101B7C0092009340FA681343FB602F497B6A9B08E1
:101B8C000233FA6841F823203B685B6803F4801346
:101B9C00002B06D02C4B9A682B49BB6913438B60E6
:101BAC0006E0294B9A68BB69DB43274913408B60DD
:101BBC003B685B6803F40013002B06D0224BDA68F9
:101BCC002149BB691343CB6006E01F4BDA68BB6944
:101BDC00DB431D491340CB603B685B6803F4003367
:101BEC00002B06D0184B5A681749BB6913434B603E
:101BFC0006E0154B5A68BB69DB43134913404B6035
:101C0C003B685B6803F48033002B1FD00E4B1A68C3
:101C1C000D49BB6913430B601FE000BF000032107D
:101C2C0000003110000022100000211000001210E2
:101C3C00000011100010024000000140000801409B
:101C4C00000C014000100140000401400B4B1A68CD
:101C5C00BB69DB43094913400B607B6A01337B6230
:101C6C003B681A687B6A22FA03F3002B7FF496AE6A
:101C7C0000BF00BF2C37BD4680BC7047000401403C
:101C8C0080B485B000AF78600B467B807B689A6827
:101C9C007B881340002B02D00123FB7301E000234F
:101CAC00FB73FB7B18461437BD4680BC704780B471
:101CBC0083B000AF78600B467B8013467B707B78DB
:101CCC00002B03D07A887B681A6103E07B881A04A6
:101CDC007B681A6100BF0C37BD4680BC704780B46E
:101CEC0085B000AF78600B467B807B68DB68FB605F
:101CFC007A88FB6813401A04FB68D9437B880B4035
:101D0C001A437B681A6100BF1437BD4680BC70470C
:101D1C0080B586B000AF78607B68002B01D10123C1
:101D2C0072E27B681B6803F00103002B00F08780D4
:101D3C00924B5B6803F00C03042B0CD08F4B5B684D
:101D4C0003F00C03082B12D18C4B5B6803F480332B
:101D5C00B3F5803F0BD1894B1B6803F40033002B88
:101D6C006CD07B685B68002B68D101234CE27B68EC
:101D7C005B68B3F5803F06D1804B1B687F4A43F408
:101D8C00803313602EE07B685B68002B0CD17B4B9F
:101D9C001B687A4A23F480331360784B1B68774AAC
:101DAC0023F4802313601DE07B685B68B3F5A02FE0
:101DBC000CD1724B1B68714A43F4802313606F4B38
:101DCC001B686E4A43F4803313600BE06B4B1B684B
:101DDC006A4A23F480331360684B1B68674A23F408
:101DEC00802313607B685B68002B13D0FFF7B4FC77
:101DFC00386108E0FFF7B0FC02463B69D31A642B4C
:101E0C0001D9032300E25D4B1B6803F40033002B64
:101E1C00F0D014E0FFF7A0FC386108E0FFF79CFC61
:101E2C0002463B69D31A642B01D90323ECE1534BD3
:101E3C001B6803F40033002BF0D100E000BF7B687B
:101E4C001B6803F00203002B63D04C4B5B6803F060
:101E5C000C03002B0BD0494B5B6803F00C03082BD5
:101E6C001CD1464B5B6803F48033002B16D1434BDB
:101E7C001B6803F00203002B05D07B681B69012B48
:101E8C0001D00123C0E13D4B1B6823F0F8027B68B5
:101E9C005B69DB00394913430B603AE07B681B69D3
:101EAC00002B20D0364B01221A60FFF755FC38610D
:101EBC0008E0FFF751FC02463B69D31A022B01D90B
:101ECC000323A1E12D4B1B6803F00203002BF0D080
:101EDC002A4B1B6823F0F8027B685B69DB002749FF
:101EEC0013430B6015E0264B00221A60FFF734FCFD
:101EFC00386108E0FFF730FC02463B69D31A022B2D
:101F0C0001D9032380E11D4B1B6803F00203002B56
:101F1C00F0D17B681B6803F00803002B3AD07B6878
:101F2C009B69002B19D0174B01221A60FFF714FC88
:101F3C00386108E0FFF710FC02463B69D31A022B0C
:101F4C0001D9032360E10D4B5B6A03F00203002B04
:101F5C00F0D0012000F09CFA1CE00A4B00221A6021
:101F6C00FFF7FAFB38610FE0FFF7F6FB02463B691F
:101F7C00D31A022B08D9032346E100BF00100240FC
:101F8C000000424280044242924B5B6A03F002031F
:101F9C00002BE9D17B681B6803F00403002B00F0D5
:101FAC00A6800023FB758B4BDB6903F08053002B61
:101FBC000DD1884BDB69874A43F08053D361854B45
:101FCC00DB6903F08053BB60BB680123FB75824B5C
:101FDC001B6803F48073002B18D17F4B1B687E4A5F
:101FEC0043F480731360FFF7B7FB386108E0FFF729
:101FFC00B3FB02463B69D31A642B01D9032303E1DB
:10200C00754B1B6803F48073002BF0D07B68DB6886
:10201C00012B06D16F4B1B6A6E4A43F0010313620E
:10202C002DE07B68DB68002B0CD16A4B1B6A694A7C
:10203C0023F001031362674B1B6A664A23F0040307
:10204C0013621CE07B68DB68052B0CD1614B1B6AAF
:10205C00604A43F0040313625E4B1B6A5D4A43F013
:10206C00010313620BE05B4B1B6A5A4A23F001031A
:10207C001362584B1B6A574A23F0040313627B68A4
:10208C00DB68002B15D0FFF767FB38610AE0FFF720
:10209C0063FB02463B69D31A41F28832934201D961
:1020AC000323B1E04B4B1B6A03F00203002BEED071
:1020BC0014E0FFF751FB38610AE0FFF74DFB0246D5
:1020CC003B69D31A41F28832934201D903239BE036
:1020DC00404B1B6A03F00203002BEED1FB7D012B5E
:1020EC0005D13C4BDB693B4A23F08053D3617B68C1
:1020FC00DB69002B00F08780364B5B6803F00C0328
:10210C00082B61D07B68DB69022B46D1334B002254
:10211C001A60FFF721FB386108E0FFF71DFB024650
:10212C003B69D31A022B01D903236DE0294B1B68A1
:10213C0003F00073002BF0D17B681B6AB3F5803F72
:10214C0008D1244B5B6823F400327B689B682149DF
:10215C0013434B601F4B5B6823F474127B68196A42
:10216C007B685B6A0B431B4913434B601B4B01227F
:10217C001A60FFF7F1FA386108E0FFF7EDFA024652
:10218C003B69D31A022B01D903233DE0114B1B6889
:10219C0003F00073002BF0D035E0104B00221A60D6
:1021AC00FFF7DAFA386108E0FFF7D6FA02463B6926
:1021BC00D31A022B01D9032326E0064B1B6803F02C
:1021CC000073002BF0D11EE07B68DB69012B07D17B
:1021DC00012319E0001002400070004060004242F0
:1021EC000B4B5B68FB60FB6803F480327B681B6AFB
:1021FC009A4206D1FB6803F470127B685B6A9A42C0
:10220C0001D0012300E0002318461837BD4680BDDD
:10221C000010024080B584B000AF786039607B68F4
:10222C00002B01D10123D0E06A4B1B6803F007039C
:10223C003A689A4210D9674B1B6823F0070265492C
:10224C003B6813430B60634B1B6803F007033A684E
:10225C009A4201D00123B8E07B681B6803F00203AB
:10226C00002B20D07B681B6803F00403002B05D0E7
:10227C00594B5B68584A43F4E06353607B681B68B6
:10228C0003F00803002B05D0534B5B68524A43F410
:10229C0060535360504B5B6823F0F0027B689B6883
:1022AC004D4913434B607B681B6803F00103002B03
:1022BC0040D07B685B68012B07D1474B1B6803F44C
:1022CC000033002B15D101237FE07B685B68022B68
:1022DC0007D1414B1B6803F00073002B09D101237C
:1022EC0073E03D4B1B6803F00203002B01D101236B
:1022FC006BE0394B5B6823F003027B685B68364903
:10230C0013434B60FFF728FAF8600AE0FFF724FA52
:10231C000246FB68D31A41F28832934201D9032357
:10232C0053E02D4B5B6803F00C027B685B689B00F1
:10233C009A42EBD1274B1B6803F007033A689A4289
:10234C0010D2244B1B6823F0070222493B6813432D
:10235C000B60204B1B6803F007033A689A4201D0CC
:10236C00012332E07B681B6803F00403002B08D0C8
:10237C00194B5B6823F4E0627B68DB6816491343F6
:10238C004B607B681B6803F00803002B09D0124BD1
:10239C005B6823F460527B681B69DB000E491343B6
:1023AC004B6000F021F802460B4B5B681B0903F0F5
:1023BC000F030A49CB5C22FA03F3094A1360094B59
:1023CC001B681846FFF786F9002318461037BD46E0
:1023DC0080BD00BF0020024000100240002D00080C
:1023EC000C0000201000002080B487B000AF002348
:1023FC00FB600023BB6000237B6100237B60002318
:10240C003B611E4B5B68FB60FB6803F00C03042B09
:10241C0002D0082B03D027E0194B3B6127E0FB6867
:10242C009B0C03F00F03174AD35C7B60FB6803F42F
:10243C008033002B10D0114B5B685B0C03F0010355
:10244C00114AD35CBB607B680D4A03FB02F2BB688C
:10245C00B2FBF3F37B6104E07B680C4A02FB03F3F1
:10246C007B617B693B6102E0054B3B6100BF3B69D3
:10247C0018461C37BD4680BC704700BF0010024098
:10248C0000127A00102D0008202D000800093D00D4
:10249C0080B485B000AF78600A4B1B680A4AA2FB77
:1024AC0003235B0A7A6802FB03F3FB6000BFFB6843
:1024BC005A1EFA60002BF9D100BF00BF1437BD467D
:1024CC0080BC70470C000020D34D621080B582B0E8
:1024DC0000AF78607B68002B01D1012341E07B6861
:1024EC0093F83D30DBB2002B06D17B68002283F8D9
:1024FC003C207868FEF766FF7B68022283F83D205B
:10250C007B681A687B6804331946104600F056FA4B
:10251C007B68012283F846207B68012283F83E20E9
:10252C007B68012283F83F207B68012283F84020DE
:10253C007B68012283F841207B68012283F84220CA
:10254C007B68012283F843207B68012283F84420B6
:10255C007B68012283F845207B68012283F83D20AB
:10256C00002318460837BD4680BD000080B485B0F6
:10257C0000AF78607B6893F83D30DBB2012B01D063
:10258C00012335E07B68022283F83D207B681B68C1
:10259C00DA687B681B6842F00102DA607B681B68B2
:1025AC00164A934209D07B681B68B3F1804F04D064
:1025BC007B681B68124A934211D17B681B689B682D
:1025CC0003F00703FB60FB68062B10D07B681B68CD
:1025DC001A687B681B6842F001021A6007E07B688E
:1025EC001B681A687B681B6842F001021A600023A2
:1025FC0018461437BD4680BC704700BF002C014004
:10260C000004004080B584B000AF78607B681B6824
:10261C00DB68FB607B681B681B69BB60BB6803F0F5
:10262C000203002B20D0FB6803F00203002B1BD00D
:10263C007B681B686FF002021A617B6801221A77B3
:10264C007B681B689B6903F00303002B03D078683D
:10265C0000F098F905E0786800F08BF9786800F0E4
:10266C009AF97B6800221A77BB6803F00403002BED
:10267C0020D0FB6803F00403002B1BD07B681B6885
:10268C006FF004021A617B6802221A777B681B6860
:10269C009B6903F44073002B03D0786800F072F947
:1026AC0005E0786800F065F9786800F074F97B68EB
:1026BC0000221A77BB6803F00803002B20D0FB68BC
:1026CC0003F00803002B1BD07B681B686FF008021B
:1026DC001A617B6804221A777B681B68DB6903F03C
:1026EC000303002B03D0786800F04CF905E0786800
:1026FC0000F03FF9786800F04EF97B6800221A77F9
:10270C00BB6803F01003002B20D0FB6803F0100310
:10271C00002B1BD07B681B686FF010021A617B6862
:10272C0008221A777B681B68DB6903F44073002B63
:10273C0003D0786800F026F905E0786800F019F904
:10274C00786800F028F97B6800221A77BB6803F0E0
:10275C000103002B0CD0FB6803F00103002B07D006
:10276C007B681B686FF001021A617868FEF7E6FD62
:10277C00BB6803F08003002B0CD0FB6803F08003D4
:10278C00002B07D07B681B686FF080021A61786899
:10279C0000F06FFABB6803F04003002B0CD0FB6811
:1027AC0003F04003002B07D07B681B686FF04002DE
:1027BC001A61786800F0F8F8BB6803F02003002B6E
:1027CC000CD0FB6803F02003002B07D07B681B6840
:1027DC006FF020021A61786800F042FA00BF1037DF
:1027EC00BD4680BD80B584B000AF786039600023F1
:1027FC00FB737B6893F83C30012B01D10223B4E0CE
:10280C007B68012283F83C207B68022283F83D2000
:10281C007B681B689B68BB60BB6823F07703BB605D
:10282C00BB6823F47F43BB607B681B68BA689A6003
:10283C003B681B68B3F5005F3ED0B3F5005F00F258
:10284C008780B3F5805F00F08680B3F5805F7FD81A
:10285C00702B1AD0702B7BD8602B50D0602B77D874
:10286C00502B3CD0502B73D8402B58D0402B6FD8CA
:10287C00302B64D0302B6BD8202B60D0202B67D81A
:10288C00002B5CD0102B5AD062E07B6818683B6838
:10289C0099683B685A683B68DB6800F06AF97B68AA
:1028AC001B689B68BB60BB6843F07703BB607B68AD
:1028BC001B68BA689A604FE07B6818683B68996837
:1028CC003B685A683B68DB6800F053F97B681B680F
:1028DC009A687B681B6842F480429A603CE07B6893
:1028EC0018683B6859683B68DB681A4600F0CAF800
:1028FC007B681B685021184600F021F92CE07B689E
:10290C0018683B6859683B68DB681A4600F0E8F8C1
:10291C007B681B686021184600F011F91CE07B688D
:10292C0018683B6859683B68DB681A4600F0AAF8DF
:10293C007B681B684021184600F001F90CE07B68AD
:10294C001A683B681B681946104600F0F8F803E05B
:10295C000123FB7300E000BF7B68012283F83D205C
:10296C007B68002283F83C20FB7B18461037BD4661
:10297C0080BD80B483B000AF786000BF0C37BD461B
:10298C0080BC704780B483B000AF786000BF0C3758
:10299C00BD4680BC704780B483B000AF786000BF88
:1029AC000C37BD4680BC704780B483B000AF7860F4
:1029BC0000BF0C37BD4680BC7047000080B485B0AA
:1029CC0000AF786039607B681B68FB607B682B4AC2
:1029DC00934207D07B68B3F1804F03D07B68284AC1
:1029EC00934208D1FB6823F07003FB603B685B6883
:1029FC00FA681343FB607B68204A934207D07B68DC
:102A0C00B3F1804F03D07B681D4A934208D1FB6819
:102A1C0023F44073FB603B68DB68FA681343FB608C
:102A2C00FB6823F080023B685B691343FB607B68A7
:102A3C00FA681A603B689A687B68DA623B681A68C5
:102A4C007B689A627B680D4A934203D13B681A6992
:102A5C007B681A637B6801225A617B681B6903F0EF
:102A6C000103002B05D07B681B6923F001027B68F6
:102A7C001A6100BF1437BD4680BC7047002C014062
:102A8C000004004080B487B000AFF860B9607A6091
:102A9C00FB681B6A7B61FB681B6A23F00102FB6805
:102AAC001A62FB689B693B613B6923F0F0033B6155
:102ABC007B681B013A6913433B617B6923F00A0372
:102ACC007B617A69BB6813437B61FB683A699A61E5
:102ADC00FB687A691A6200BF1C37BD4680BC704720
:102AEC0080B487B000AFF860B9607A60FB681B6A8D
:102AFC007B61FB681B6A23F01002FB681A62FB689F
:102B0C009B693B613B6923F470433B617B681B030E
:102B1C003A6913433B617B6923F0A0037B61BB687B
:102B2C001B017A6913437B61FB683A699A61FB6804
:102B3C007A691A6200BF1C37BD4680BC704780B4EE
:102B4C0085B000AF786039607B689B68FB60FB6880
:102B5C0023F07003FB603A68FB68134343F00703F0
:102B6C00FB607B68FA689A6000BF1437BD4680BC76
:102B7C00704780B487B000AFF860B9607A603B6092
:102B8C00FB689B687B617B6923F47F437B613B68BB
:102B9C001A027B681A43BB6813437A6913437B613F
:102BAC00FB687A699A6000BF1C37BD4680BC7047D1
:102BBC0080B485B000AF786039607B6893F83C30A6
:102BCC00012B01D1022341E07B68012283F83C20D8
:102BDC007B68022283F83D207B681B685B68FB6086
:102BEC007B681B689B68BB60FB6823F07003FB6011
:102BFC003B681B68FA681343FB607B681B68FA68C8
:102C0C005A607B681B68144A934209D07B681B6826
:102C1C00B3F1804F04D07B681B68104A93420CD1EF
:102C2C00BB6823F08003BB603B685B68BA681343E6
:102C3C00BB607B681B68BA689A607B68012283F86A
:102C4C003D207B68002283F83C2000231846143773
:102C5C00BD4680BC704700BF002C01400004004002
:102C6C0080B483B000AF786000BF0C37BD4680BC29
:102C7C00704780B483B000AF786000BF0C37BD469E
:102C8C0080BC704703460244934200D1704703F85E
:102C9C00011BF9E770B500260C4D0D4C641BA410FC
:102CAC00A64209D100F01AF800260A4D0A4C641B02
:102CBC00A410A64205D170BD55F8043B98470136C7
:102CCC00EEE755F8043B98470136F2E7242D00084F
:102CDC00242D0008242D0008282D0008F8B500BF6D
:102CEC00F8BC08BC9E467047F8B500BFF8BC08BCE1
:042CFC009E46704739
:102D0000000000000000000001020304060708099B
:102D100002030405060708090A0B0C0D0E0F10101C
:042D200001020000AC
:042D24003101000871
:042D28000D01000891
:102D2C0005000000020000000300000000127A0001
:082D3C0010000000010000007E
:040000050800166970
:00000001FF
